{
    "contractName": "GeneralPublic",
    "abi": [
        {
            "inputs": [
                {
                    "internalType": "uint256",
                    "name": "rate",
                    "type": "uint256"
                },
                {
                    "internalType": "address payable",
                    "name": "wallet",
                    "type": "address"
                },
                {
                    "internalType": "uint256",
                    "name": "openingTime",
                    "type": "uint256"
                },
                {
                    "internalType": "uint256",
                    "name": "closingTime",
                    "type": "uint256"
                },
                {
                    "internalType": "uint256",
                    "name": "cap",
                    "type": "uint256"
                },
                {
                    "internalType": "address",
                    "name": "vestingContract",
                    "type": "address"
                }
            ],
            "stateMutability": "nonpayable",
            "type": "constructor"
        },
        {
            "anonymous": false,
            "inputs": [
                {
                    "indexed": true,
                    "internalType": "address",
                    "name": "previousOwner",
                    "type": "address"
                },
                {
                    "indexed": true,
                    "internalType": "address",
                    "name": "newOwner",
                    "type": "address"
                }
            ],
            "name": "OwnershipTransferred",
            "type": "event"
        },
        {
            "anonymous": false,
            "inputs": [
                {
                    "indexed": false,
                    "internalType": "address",
                    "name": "account",
                    "type": "address"
                }
            ],
            "name": "Paused",
            "type": "event"
        },
        {
            "anonymous": false,
            "inputs": [
                {
                    "indexed": false,
                    "internalType": "uint256",
                    "name": "prevClosingTime",
                    "type": "uint256"
                },
                {
                    "indexed": false,
                    "internalType": "uint256",
                    "name": "newClosingTime",
                    "type": "uint256"
                }
            ],
            "name": "TimedCrowdsaleExtended",
            "type": "event"
        },
        {
            "anonymous": false,
            "inputs": [
                {
                    "indexed": true,
                    "internalType": "address",
                    "name": "purchaser",
                    "type": "address"
                },
                {
                    "indexed": true,
                    "internalType": "address",
                    "name": "beneficiary",
                    "type": "address"
                },
                {
                    "indexed": false,
                    "internalType": "uint256",
                    "name": "value",
                    "type": "uint256"
                },
                {
                    "indexed": false,
                    "internalType": "uint256",
                    "name": "amount",
                    "type": "uint256"
                }
            ],
            "name": "TokensPurchased",
            "type": "event"
        },
        {
            "anonymous": false,
            "inputs": [
                {
                    "indexed": false,
                    "internalType": "address",
                    "name": "account",
                    "type": "address"
                }
            ],
            "name": "Unpaused",
            "type": "event"
        },
        {
            "inputs": [
                {
                    "internalType": "address",
                    "name": "beneficiary",
                    "type": "address"
                }
            ],
            "name": "buyTokens",
            "outputs": [],
            "stateMutability": "payable",
            "type": "function"
        },
        {
            "inputs": [],
            "name": "cap",
            "outputs": [
                {
                    "internalType": "uint256",
                    "name": "",
                    "type": "uint256"
                }
            ],
            "stateMutability": "view",
            "type": "function"
        },
        {
            "inputs": [],
            "name": "capReached",
            "outputs": [
                {
                    "internalType": "bool",
                    "name": "",
                    "type": "bool"
                }
            ],
            "stateMutability": "view",
            "type": "function"
        },
        {
            "inputs": [],
            "name": "closingTime",
            "outputs": [
                {
                    "internalType": "uint256",
                    "name": "",
                    "type": "uint256"
                }
            ],
            "stateMutability": "view",
            "type": "function"
        },
        {
            "inputs": [
                {
                    "internalType": "uint256",
                    "name": "newClosingTime",
                    "type": "uint256"
                }
            ],
            "name": "extendTime",
            "outputs": [],
            "stateMutability": "nonpayable",
            "type": "function"
        },
        {
            "inputs": [],
            "name": "hasClosed",
            "outputs": [
                {
                    "internalType": "bool",
                    "name": "",
                    "type": "bool"
                }
            ],
            "stateMutability": "view",
            "type": "function"
        },
        {
            "inputs": [],
            "name": "isOpen",
            "outputs": [
                {
                    "internalType": "bool",
                    "name": "",
                    "type": "bool"
                }
            ],
            "stateMutability": "view",
            "type": "function"
        },
        {
            "inputs": [],
            "name": "maxInvestment",
            "outputs": [
                {
                    "internalType": "uint256",
                    "name": "",
                    "type": "uint256"
                }
            ],
            "stateMutability": "view",
            "type": "function"
        },
        {
            "inputs": [],
            "name": "minInvestment",
            "outputs": [
                {
                    "internalType": "uint256",
                    "name": "",
                    "type": "uint256"
                }
            ],
            "stateMutability": "view",
            "type": "function"
        },
        {
            "inputs": [],
            "name": "openingTime",
            "outputs": [
                {
                    "internalType": "uint256",
                    "name": "",
                    "type": "uint256"
                }
            ],
            "stateMutability": "view",
            "type": "function"
        },
        {
            "inputs": [],
            "name": "owner",
            "outputs": [
                {
                    "internalType": "address",
                    "name": "",
                    "type": "address"
                }
            ],
            "stateMutability": "view",
            "type": "function"
        },
        {
            "inputs": [],
            "name": "pause",
            "outputs": [],
            "stateMutability": "nonpayable",
            "type": "function"
        },
        {
            "inputs": [],
            "name": "paused",
            "outputs": [
                {
                    "internalType": "bool",
                    "name": "",
                    "type": "bool"
                }
            ],
            "stateMutability": "view",
            "type": "function"
        },
        {
            "inputs": [],
            "name": "rate",
            "outputs": [
                {
                    "internalType": "uint256",
                    "name": "",
                    "type": "uint256"
                }
            ],
            "stateMutability": "view",
            "type": "function"
        },
        {
            "inputs": [],
            "name": "renounceOwnership",
            "outputs": [],
            "stateMutability": "nonpayable",
            "type": "function"
        },
        {
            "inputs": [],
            "name": "tokensSold",
            "outputs": [
                {
                    "internalType": "uint256",
                    "name": "",
                    "type": "uint256"
                }
            ],
            "stateMutability": "view",
            "type": "function"
        },
        {
            "inputs": [
                {
                    "internalType": "address",
                    "name": "newOwner",
                    "type": "address"
                }
            ],
            "name": "transferOwnership",
            "outputs": [],
            "stateMutability": "nonpayable",
            "type": "function"
        },
        {
            "inputs": [],
            "name": "unpause",
            "outputs": [],
            "stateMutability": "nonpayable",
            "type": "function"
        },
        {
            "inputs": [],
            "name": "vestingTime",
            "outputs": [
                {
                    "internalType": "uint256",
                    "name": "",
                    "type": "uint256"
                }
            ],
            "stateMutability": "view",
            "type": "function"
        },
        {
            "inputs": [],
            "name": "wallet",
            "outputs": [
                {
                    "internalType": "address payable",
                    "name": "",
                    "type": "address"
                }
            ],
            "stateMutability": "view",
            "type": "function"
        },
        {
            "inputs": [],
            "name": "weiRaised",
            "outputs": [
                {
                    "internalType": "uint256",
                    "name": "",
                    "type": "uint256"
                }
            ],
            "stateMutability": "view",
            "type": "function"
        },
        {
            "inputs": [],
            "name": "withdraw",
            "outputs": [],
            "stateMutability": "nonpayable",
            "type": "function"
        }
    ],
    "bytecode": "60806040523480156200001157600080fd5b506040516200175738038062001757833981016040819052620000349162000353565b6200003f33620002ea565b600180556002805460ff1916905585620000a05760405162461bcd60e51b815260206004820152601460248201527f43726f776473616c653a2072617465206973203000000000000000000000000060448201526064015b60405180910390fd5b6001600160a01b038516620001065760405162461bcd60e51b815260206004820152602560248201527f43726f776473616c653a2077616c6c657420697320746865207a65726f206164604482015264647265737360d81b606482015260840162000097565b6001600160a01b038116620001765760405162461bcd60e51b815260206004820152602f60248201527f43726f776473616c653a2076657374696e6720636f6e7472616374206973207460448201526e6865207a65726f206164647265737360881b606482015260840162000097565b42841015620001dd5760405162461bcd60e51b815260206004820152603360248201526000805160206200173783398151915260448201527f6265666f72652063757272656e742074696d6500000000000000000000000000606482015260840162000097565b838311620002435760405162461bcd60e51b815260206004820152603760248201526000805160206200173783398151915260448201527f6e6f74206265666f726520636c6f73696e672074696d65000000000000000000606482015260840162000097565b60008211620002955760405162461bcd60e51b815260206004820152601960248201527f43617070656443726f776473616c653a20636170206973203000000000000000604482015260640162000097565b600a80546001600160a01b0319166001600160a01b0392831617905560079190915560039490945560028054610100600160a81b031916610100949095169390930293909317909155600555600655620003b8565b600080546001600160a01b038381166001600160a01b0319831681178455604051919092169283917f8be0079c531659141344cd1fd0a4f28419497f9722a3daafe3b4186f6b6457e09190a35050565b6001600160a01b03811681146200035057600080fd5b50565b60008060008060008060c087890312156200036d57600080fd5b86519550602087015162000381816200033a565b8095505060408701519350606087015192506080870151915060a0870151620003aa816200033a565b809150509295509295509295565b61136f80620003c86000396000f3fe6080604052600436106101345760003560e01c8063521eb273116100ab5780638da5cb5b1161006f5780638da5cb5b146102dd578063a27aebbc146102fb578063b7a8807c1461031b578063c7dab43614610330578063ec8ac4d814610346578063f2fde38b1461035957600080fd5b8063521eb2731461024a5780635c975abb14610281578063715018a6146102995780638456cb59146102ae5780638ac2c680146102c357600080fd5b80633f4ba83a116100fd5780633f4ba83a146101cc5780634042b66f146101e157806347535d7b146101f65780634b6753bc1461020b5780634f93594514610220578063518ab2a81461023557600080fd5b80622e1316146101395780631515bc2b146101685780632c4e722e1461018b578063355274ea146101a05780633ccfd60b146101b5575b600080fd5b34801561014557600080fd5b50610155670de0b6b3a764000081565b6040519081526020015b60405180910390f35b34801561017457600080fd5b5060065442115b604051901515815260200161015f565b34801561019757600080fd5b50600354610155565b3480156101ac57600080fd5b50600754610155565b3480156101c157600080fd5b506101ca610379565b005b3480156101d857600080fd5b506101ca610448565b3480156101ed57600080fd5b50600454610155565b34801561020257600080fd5b5061017b6104c5565b34801561021757600080fd5b50600654610155565b34801561022c57600080fd5b5061017b6104e0565b34801561024157600080fd5b50600854610155565b34801561025657600080fd5b5060025461010090046001600160a01b03165b6040516001600160a01b03909116815260200161015f565b34801561028d57600080fd5b5060025460ff1661017b565b3480156102a557600080fd5b506101ca6104f5565b3480156102ba57600080fd5b506101ca610529565b3480156102cf57600080fd5b50610155655af3107a400081565b3480156102e957600080fd5b506000546001600160a01b0316610269565b34801561030757600080fd5b506101ca6103163660046110d7565b61057e565b34801561032757600080fd5b50600554610155565b34801561033c57600080fd5b506101556107d081565b6101ca610354366004611105565b6105d4565b34801561036557600080fd5b506101ca610374366004611105565b6106ef565b6000546001600160a01b031633146103ac5760405162461bcd60e51b81526004016103a390611129565b60405180910390fd5b6000336001600160a01b0316476040515b60006040518083038185875af1925050503d80600081146103fa576040519150601f19603f3d011682016040523d82523d6000602084013e6103ff565b606091505b50509050806104455760405162461bcd60e51b8152602060048201526012602482015271119bdc9dd85c9908199d5b991cc819985a5b60721b60448201526064016103a3565b50565b6000546001600160a01b031633146104725760405162461bcd60e51b81526004016103a390611129565b60025460ff166104bb5760405162461bcd60e51b815260206004820152601460248201527314185d5cd8589b194e881b9bdd081c185d5cd95960621b60448201526064016103a3565b6104c3610787565b565b600060055442101580156104db57506006544211155b905090565b60006007546104ee60045490565b1015905090565b6000546001600160a01b0316331461051f5760405162461bcd60e51b81526004016103a390611129565b6104c3600061081a565b6000546001600160a01b031633146105535760405162461bcd60e51b81526004016103a390611129565b60025460ff16156105765760405162461bcd60e51b81526004016103a39061115e565b6104c361086a565b6000546001600160a01b031633146105a85760405162461bcd60e51b81526004016103a390611129565b60025460ff16156105cb5760405162461bcd60e51b81526004016103a39061115e565b610445816108c2565b6002600154036106265760405162461bcd60e51b815260206004820152601f60248201527f5265656e7472616e637947756172643a207265656e7472616e742063616c6c0060448201526064016103a3565b600260015561063760025460ff1690565b156106545760405162461bcd60e51b81526004016103a39061115e565b3461065f82826109cc565b600061066a82610b91565b9050816004600082825461067e919061119e565b9091555061068e90508382610ba7565b60408051838152602081018390526001600160a01b0385169133917f6faf93231a456e552dbc9961f58d9713ee4f2e69d15f1975b050ef0911053a7b910160405180910390a36106de8383610bb5565b6106e6610bf6565b50506001805550565b6000546001600160a01b031633146107195760405162461bcd60e51b81526004016103a390611129565b6001600160a01b03811661077e5760405162461bcd60e51b815260206004820152602660248201527f4f776e61626c653a206e6577206f776e657220697320746865207a65726f206160448201526564647265737360d01b60648201526084016103a3565b6104458161081a565b60025460ff166107d05760405162461bcd60e51b815260206004820152601460248201527314185d5cd8589b194e881b9bdd081c185d5cd95960621b60448201526064016103a3565b6002805460ff191690557f5db9ee0a495bf2e6ff9c91a7834c1ba4fdd244a5e8aa4e537bd38aeae4b073aa335b6040516001600160a01b03909116815260200160405180910390a1565b600080546001600160a01b038381166001600160a01b0319831681178455604051919092169283917f8be0079c531659141344cd1fd0a4f28419497f9722a3daafe3b4186f6b6457e09190a35050565b60025460ff161561088d5760405162461bcd60e51b81526004016103a39061115e565b6002805460ff191660011790557f62e78cea01bee320cd4e420270b5ea74000d11b0c9f74754ebdbfc544b05a2586107fd3390565b6006544211156109145760405162461bcd60e51b815260206004820152601e60248201527f54696d656443726f776473616c653a20616c726561647920636c6f736564000060448201526064016103a3565b600654811161098b5760405162461bcd60e51b815260206004820152603f60248201527f54696d656443726f776473616c653a206e657720636c6f73696e672074696d6560448201527f206973206265666f72652063757272656e7420636c6f73696e672074696d650060648201526084016103a3565b60065460408051918252602082018390527f46711e222f558a07afd26e5e71b48ecb0a8b2cdcd40faeb1323e05e2c76a2f32910160405180910390a1600655565b6109d46104c5565b610a205760405162461bcd60e51b815260206004820152601860248201527f54696d656443726f776473616c653a206e6f74206f70656e000000000000000060448201526064016103a3565b6001600160a01b038216610a895760405162461bcd60e51b815260206004820152602a60248201527f43726f776473616c653a2062656e656669636961727920697320746865207a65604482015269726f206164647265737360b01b60648201526084016103a3565b80600003610ad95760405162461bcd60e51b815260206004820152601960248201527f43726f776473616c653a20776569416d6f756e7420697320300000000000000060448201526064016103a3565b60075481610ae660045490565b610af0919061119e565b1115610b3e5760405162461bcd60e51b815260206004820152601d60248201527f43617070656443726f776473616c653a2063617020657863656564656400000060448201526064016103a3565b6001600160a01b03821660009081526009602052604081205490610b62838361119e565b9050655af3107a40008110158015610b825750670de0b6b3a76400008111155b610b8b57600080fd5b50505050565b600060035482610ba191906111b6565b92915050565b610bb18282610c0b565b5050565b6001600160a01b03821660009081526009602052604081208054839290610bdd90849061119e565b9091555050600354610bef90826111b6565b6008555050565b6000336001600160a01b0316346040516103bd565b600a54604051632d3ddb4d60e11b81526001600160a01b0384811660048301526000921690635a7bb69a90602401602060405180830381865afa158015610c56573d6000803e3d6000fd5b505050506040513d601f19601f82011682018060405250810190610c7a91906111d5565b905080600003610cf957600a546040516327a1567f60e01b81526001600160a01b03909116906327a1567f90610cc29086906000906107d09060019081908a906004016111ee565b600060405180830381600087803b158015610cdc57600080fd5b505af1158015610cf0573d6000803e3d6000fd5b50505050505050565b80600103610f0e57600a5460405163f51321d760e01b81526001600160a01b038581166004830152600060248301523092169063f51321d79060440161014060405180830381865afa158015610d53573d6000803e3d6000fd5b505050506040513d601f19601f82011682018060405250810190610d77919061127b565b61012001516001600160a01b031603610e3257600a54604051634578826d60e11b81526001600160a01b0385811660048301526000602483015290911690636b8e95859084908390638af104da90604401602060405180830381865afa158015610de5573d6000803e3d6000fd5b505050506040513d601f19601f82011682018060405250810190610e0991906111d5565b6040516001600160e01b031960e085901b16815260048101929092526024820152604401610cc2565b6000546001600160a01b0316600a5460405163f51321d760e01b81526001600160a01b03868116600483015260006024830152928316929091169063f51321d79060440161014060405180830381865afa158015610e94573d6000803e3d6000fd5b505050506040513d601f19601f82011682018060405250810190610eb8919061127b565b61012001516001600160a01b031603610f0957600a546040516327a1567f60e01b81526001600160a01b03909116906327a1567f90610cc29086906000906107d09060019081908a906004016111ee565b505050565b6001811115610f095760005b8181101561109857600a5460405163f51321d760e01b81526001600160a01b038681166004830152602482018490523092169063f51321d79060440161014060405180830381865afa158015610f74573d6000803e3d6000fd5b505050506040513d601f19601f82011682018060405250810190610f98919061127b565b61012001516001600160a01b03160361108657600a54604051634578826d60e11b81526001600160a01b0386811660048301526024820184905290911690636b8e95859085908390638af104da90604401602060405180830381865afa158015611006573d6000803e3d6000fd5b505050506040513d601f19601f8201168201806040525081019061102a91906111d5565b6040516001600160e01b031960e085901b16815260048101929092526024820152604401600060405180830381600087803b15801561106857600080fd5b505af115801561107c573d6000803e3d6000fd5b5050505050505050565b8061109081611320565b915050610f1a565b50600a546040516327a1567f60e01b81526001600160a01b03909116906327a1567f90610cc29086906000906107d09060019081908a906004016111ee565b6000602082840312156110e957600080fd5b5035919050565b6001600160a01b038116811461044557600080fd5b60006020828403121561111757600080fd5b8135611122816110f0565b9392505050565b6020808252818101527f4f776e61626c653a2063616c6c6572206973206e6f7420746865206f776e6572604082015260600190565b60208082526010908201526f14185d5cd8589b194e881c185d5cd95960821b604082015260600190565b634e487b7160e01b600052601160045260246000fd5b600082198211156111b1576111b1611188565b500190565b60008160001904831182151516156111d0576111d0611188565b500290565b6000602082840312156111e757600080fd5b5051919050565b6001600160a01b039690961686526020860194909452604085019290925260608401521515608083015260a082015260c00190565b604051610140810167ffffffffffffffff8111828210171561125557634e487b7160e01b600052604160045260246000fd5b60405290565b8051801515811461126b57600080fd5b919050565b805161126b816110f0565b6000610140828403121561128e57600080fd5b611296611223565b61129f8361125b565b81526112ad60208401611270565b60208201526040830151604082015260608301516060820152608083015160808201526112dc60a0840161125b565b60a082015260c083015160c082015260e083015160e082015261010061130381850161125b565b90820152610120611315848201611270565b908201529392505050565b60006001820161133257611332611188565b506001019056fea2646970667358221220220979e398fe91e2d37bcdf648cf2256164983abdea81fb66512a5dcb2c8ce4d64736f6c634300080d003354696d656443726f776473616c653a206f70656e696e672074696d6520697320",
    "sourcePath": "c:/Users/mateo/Desktop/DappsFactory/tokenVesting_2/contracts/GeneralPublic.sol",
    "compiler": {
        "name": "solc",
        "version": "0.8.13+commit.abaa5c0e"
    },
    "functionHashes": {
        "buyTokens(address)": "ec8ac4d8",
        "cap()": "355274ea",
        "capReached()": "4f935945",
        "closingTime()": "4b6753bc",
        "extendTime(uint256)": "a27aebbc",
        "hasClosed()": "1515bc2b",
        "isOpen()": "47535d7b",
        "maxInvestment()": "002e1316",
        "minInvestment()": "8ac2c680",
        "openingTime()": "b7a8807c",
        "owner()": "8da5cb5b",
        "pause()": "8456cb59",
        "paused()": "5c975abb",
        "rate()": "2c4e722e",
        "renounceOwnership()": "715018a6",
        "tokensSold()": "518ab2a8",
        "transferOwnership(address)": "f2fde38b",
        "unpause()": "3f4ba83a",
        "vestingTime()": "c7dab436",
        "wallet()": "521eb273",
        "weiRaised()": "4042b66f",
        "withdraw()": "3ccfd60b"
    },
    "gasEstimates": {
        "creation": {
            "codeDepositCost": "995000",
            "executionCost": "infinite",
            "totalCost": "infinite"
        },
        "external": {
            "buyTokens(address)": "infinite",
            "cap()": "2371",
            "capReached()": "4556",
            "closingTime()": "2370",
            "extendTime(uint256)": "34348",
            "hasClosed()": "2338",
            "isOpen()": "4529",
            "maxInvestment()": "208",
            "minInvestment()": "295",
            "openingTime()": "2347",
            "owner()": "2353",
            "pause()": "31965",
            "paused()": "2349",
            "rate()": "2349",
            "renounceOwnership()": "28181",
            "tokensSold()": "2414",
            "transferOwnership(address)": "infinite",
            "unpause()": "31873",
            "vestingTime()": "272",
            "wallet()": "2354",
            "weiRaised()": "2326",
            "withdraw()": "infinite"
        },
        "internal": {
            "_extendTime(uint256)": "infinite",
            "_forwardFunds()": "infinite",
            "_getTokenAmount(uint256)": "2233",
            "_postValidatePurchase(address,uint256)": "infinite",
            "_preValidatePurchase(address,uint256)": "infinite",
            "_processPurchase(address,uint256)": "infinite",
            "_updatePurchasingState(address,uint256)": "48702",
            "_updateScheduleAmount(address,uint256)": "infinite"
        }
    }
}