{
    "contractName": "Roles",
    "abi": [
        {
            "inputs": [],
            "stateMutability": "nonpayable",
            "type": "constructor"
        },
        {
            "anonymous": false,
            "inputs": [
                {
                    "indexed": false,
                    "internalType": "address",
                    "name": "previousAdmin",
                    "type": "address"
                },
                {
                    "indexed": false,
                    "internalType": "address",
                    "name": "newAdmin",
                    "type": "address"
                }
            ],
            "name": "AdminChanged",
            "type": "event"
        },
        {
            "anonymous": false,
            "inputs": [
                {
                    "indexed": true,
                    "internalType": "address",
                    "name": "beacon",
                    "type": "address"
                }
            ],
            "name": "BeaconUpgraded",
            "type": "event"
        },
        {
            "anonymous": false,
            "inputs": [
                {
                    "indexed": false,
                    "internalType": "address",
                    "name": "account",
                    "type": "address"
                }
            ],
            "name": "Paused",
            "type": "event"
        },
        {
            "anonymous": false,
            "inputs": [
                {
                    "indexed": true,
                    "internalType": "bytes32",
                    "name": "role",
                    "type": "bytes32"
                },
                {
                    "indexed": true,
                    "internalType": "bytes32",
                    "name": "previousAdminRole",
                    "type": "bytes32"
                },
                {
                    "indexed": true,
                    "internalType": "bytes32",
                    "name": "newAdminRole",
                    "type": "bytes32"
                }
            ],
            "name": "RoleAdminChanged",
            "type": "event"
        },
        {
            "anonymous": false,
            "inputs": [
                {
                    "indexed": true,
                    "internalType": "bytes32",
                    "name": "role",
                    "type": "bytes32"
                },
                {
                    "indexed": true,
                    "internalType": "address",
                    "name": "account",
                    "type": "address"
                },
                {
                    "indexed": true,
                    "internalType": "address",
                    "name": "sender",
                    "type": "address"
                }
            ],
            "name": "RoleGranted",
            "type": "event"
        },
        {
            "anonymous": false,
            "inputs": [
                {
                    "indexed": true,
                    "internalType": "bytes32",
                    "name": "role",
                    "type": "bytes32"
                },
                {
                    "indexed": true,
                    "internalType": "address",
                    "name": "account",
                    "type": "address"
                },
                {
                    "indexed": true,
                    "internalType": "address",
                    "name": "sender",
                    "type": "address"
                }
            ],
            "name": "RoleRevoked",
            "type": "event"
        },
        {
            "anonymous": false,
            "inputs": [
                {
                    "indexed": false,
                    "internalType": "address",
                    "name": "account",
                    "type": "address"
                }
            ],
            "name": "Unpaused",
            "type": "event"
        },
        {
            "anonymous": false,
            "inputs": [
                {
                    "indexed": true,
                    "internalType": "address",
                    "name": "implementation",
                    "type": "address"
                }
            ],
            "name": "Upgraded",
            "type": "event"
        },
        {
            "anonymous": false,
            "inputs": [
                {
                    "indexed": true,
                    "internalType": "address",
                    "name": "roleAddress",
                    "type": "address"
                },
                {
                    "indexed": false,
                    "internalType": "string",
                    "name": "description",
                    "type": "string"
                }
            ],
            "name": "eventRole",
            "type": "event"
        },
        {
            "inputs": [],
            "name": "DEFAULT_ADMIN_ROLE",
            "outputs": [
                {
                    "internalType": "bytes32",
                    "name": "",
                    "type": "bytes32"
                }
            ],
            "stateMutability": "view",
            "type": "function"
        },
        {
            "inputs": [
                {
                    "internalType": "address",
                    "name": "_address",
                    "type": "address"
                }
            ],
            "name": "addPreSaleWhitelist",
            "outputs": [],
            "stateMutability": "nonpayable",
            "type": "function"
        },
        {
            "inputs": [
                {
                    "internalType": "address",
                    "name": "_address",
                    "type": "address"
                }
            ],
            "name": "addPrivateSaleWhitelist",
            "outputs": [],
            "stateMutability": "nonpayable",
            "type": "function"
        },
        {
            "inputs": [
                {
                    "internalType": "string",
                    "name": "_roleName",
                    "type": "string"
                }
            ],
            "name": "createRole",
            "outputs": [],
            "stateMutability": "nonpayable",
            "type": "function"
        },
        {
            "inputs": [
                {
                    "internalType": "string",
                    "name": "_roleName",
                    "type": "string"
                }
            ],
            "name": "getHashRole",
            "outputs": [
                {
                    "internalType": "bytes32",
                    "name": "",
                    "type": "bytes32"
                }
            ],
            "stateMutability": "view",
            "type": "function"
        },
        {
            "inputs": [
                {
                    "internalType": "bytes32",
                    "name": "role",
                    "type": "bytes32"
                }
            ],
            "name": "getRoleAdmin",
            "outputs": [
                {
                    "internalType": "bytes32",
                    "name": "",
                    "type": "bytes32"
                }
            ],
            "stateMutability": "view",
            "type": "function"
        },
        {
            "inputs": [
                {
                    "internalType": "bytes32",
                    "name": "role",
                    "type": "bytes32"
                },
                {
                    "internalType": "address",
                    "name": "account",
                    "type": "address"
                }
            ],
            "name": "grantRole",
            "outputs": [],
            "stateMutability": "nonpayable",
            "type": "function"
        },
        {
            "inputs": [
                {
                    "internalType": "bytes32",
                    "name": "role",
                    "type": "bytes32"
                },
                {
                    "internalType": "address",
                    "name": "account",
                    "type": "address"
                }
            ],
            "name": "hasRole",
            "outputs": [
                {
                    "internalType": "bool",
                    "name": "",
                    "type": "bool"
                }
            ],
            "stateMutability": "view",
            "type": "function"
        },
        {
            "inputs": [],
            "name": "initialize",
            "outputs": [],
            "stateMutability": "nonpayable",
            "type": "function"
        },
        {
            "inputs": [
                {
                    "internalType": "address",
                    "name": "_address",
                    "type": "address"
                }
            ],
            "name": "isPreSaleWhitelisted",
            "outputs": [
                {
                    "internalType": "bool",
                    "name": "",
                    "type": "bool"
                }
            ],
            "stateMutability": "view",
            "type": "function"
        },
        {
            "inputs": [
                {
                    "internalType": "address",
                    "name": "_address",
                    "type": "address"
                }
            ],
            "name": "isPrivateWhitelisted",
            "outputs": [
                {
                    "internalType": "bool",
                    "name": "",
                    "type": "bool"
                }
            ],
            "stateMutability": "view",
            "type": "function"
        },
        {
            "inputs": [],
            "name": "pause",
            "outputs": [],
            "stateMutability": "nonpayable",
            "type": "function"
        },
        {
            "inputs": [],
            "name": "paused",
            "outputs": [
                {
                    "internalType": "bool",
                    "name": "",
                    "type": "bool"
                }
            ],
            "stateMutability": "view",
            "type": "function"
        },
        {
            "inputs": [],
            "name": "proxiableUUID",
            "outputs": [
                {
                    "internalType": "bytes32",
                    "name": "",
                    "type": "bytes32"
                }
            ],
            "stateMutability": "view",
            "type": "function"
        },
        {
            "inputs": [
                {
                    "internalType": "address",
                    "name": "_address",
                    "type": "address"
                }
            ],
            "name": "removePreSaleWhitelist",
            "outputs": [],
            "stateMutability": "nonpayable",
            "type": "function"
        },
        {
            "inputs": [
                {
                    "internalType": "address",
                    "name": "_address",
                    "type": "address"
                }
            ],
            "name": "removePrivateSaleWhitelist",
            "outputs": [],
            "stateMutability": "nonpayable",
            "type": "function"
        },
        {
            "inputs": [
                {
                    "internalType": "bytes32",
                    "name": "role",
                    "type": "bytes32"
                },
                {
                    "internalType": "address",
                    "name": "account",
                    "type": "address"
                }
            ],
            "name": "renounceRole",
            "outputs": [],
            "stateMutability": "nonpayable",
            "type": "function"
        },
        {
            "inputs": [
                {
                    "internalType": "bytes32",
                    "name": "role",
                    "type": "bytes32"
                },
                {
                    "internalType": "address",
                    "name": "account",
                    "type": "address"
                }
            ],
            "name": "revokeRole",
            "outputs": [],
            "stateMutability": "nonpayable",
            "type": "function"
        },
        {
            "inputs": [
                {
                    "internalType": "bytes4",
                    "name": "interfaceId",
                    "type": "bytes4"
                }
            ],
            "name": "supportsInterface",
            "outputs": [
                {
                    "internalType": "bool",
                    "name": "",
                    "type": "bool"
                }
            ],
            "stateMutability": "view",
            "type": "function"
        },
        {
            "inputs": [],
            "name": "unpause",
            "outputs": [],
            "stateMutability": "nonpayable",
            "type": "function"
        },
        {
            "inputs": [
                {
                    "internalType": "address",
                    "name": "newImplementation",
                    "type": "address"
                }
            ],
            "name": "upgradeTo",
            "outputs": [],
            "stateMutability": "nonpayable",
            "type": "function"
        },
        {
            "inputs": [
                {
                    "internalType": "address",
                    "name": "newImplementation",
                    "type": "address"
                },
                {
                    "internalType": "bytes",
                    "name": "data",
                    "type": "bytes"
                }
            ],
            "name": "upgradeToAndCall",
            "outputs": [],
            "stateMutability": "payable",
            "type": "function"
        }
    ],
    "bytecode": "60a0604052306080523480156200001557600080fd5b50600054610100900460ff16620000335760005460ff16156200003d565b6200003d620000e2565b620000a55760405162461bcd60e51b815260206004820152602e60248201527f496e697469616c697a61626c653a20636f6e747261637420697320616c72656160448201526d191e481a5b9a5d1a585b1a5e995960921b606482015260840160405180910390fd5b600054610100900460ff16158015620000c8576000805461ffff19166101011790555b8015620000db576000805461ff00191690555b506200010f565b6000620000fa306200010060201b620011541760201c565b15905090565b6001600160a01b03163b151590565b608051611eb8620001476000396000818161063b0152818161067b015281816107510152818161079101526108200152611eb86000f3fe6080604052600436106101355760003560e01c80638456cb59116100ab578063b7906ffd1161006f578063b7906ffd1461033d578063bdcdd4b31461035d578063c68f7b581461037d578063d547741f1461039d578063e376078b146103bd578063f82aa41c146103dd57600080fd5b80638456cb591461029957806386bd9121146102ae57806391d14854146102e8578063a217fddf14610308578063af17d38a1461031d57600080fd5b80633f4ba83a116100fd5780633f4ba83a1461020f5780634f1ef2861461022457806352d1902d146102375780635c975abb1461024c57806378f03945146102645780638129fc1c1461028457600080fd5b806301ffc9a71461013a578063248a9ca31461016f5780632f2ff15d146101ad57806336568abe146101cf5780633659cfe6146101ef575b600080fd5b34801561014657600080fd5b5061015a610155366004611978565b610417565b60405190151581526020015b60405180910390f35b34801561017b57600080fd5b5061019f61018a3660046119a2565b60009081526065602052604090206001015490565b604051908152602001610166565b3480156101b957600080fd5b506101cd6101c83660046119d7565b61044e565b005b3480156101db57600080fd5b506101cd6101ea3660046119d7565b6105b7565b3480156101fb57600080fd5b506101cd61020a366004611a03565b610631565b34801561021b57600080fd5b506101cd610710565b6101cd610232366004611aaa565b610747565b34801561024357600080fd5b5061019f610813565b34801561025857600080fd5b5060fb5460ff1661015a565b34801561027057600080fd5b506101cd61027f366004611a03565b6108c6565b34801561029057600080fd5b506101cd610a04565b3480156102a557600080fd5b506101cd610c91565b3480156102ba57600080fd5b5061015a6102c9366004611a03565b6001600160a01b0316600090815261012f602052604090205460ff1690565b3480156102f457600080fd5b5061015a6103033660046119d7565b610cc7565b34801561031457600080fd5b5061019f600081565b34801561032957600080fd5b506101cd610338366004611b0c565b610cf2565b34801561034957600080fd5b5061019f610358366004611b0c565b610dbf565b34801561036957600080fd5b506101cd610378366004611a03565b610de8565b34801561038957600080fd5b506101cd610398366004611a03565b610e97565b3480156103a957600080fd5b506101cd6103b83660046119d7565b610f48565b3480156103c957600080fd5b506101cd6103d8366004611a03565b6110a0565b3480156103e957600080fd5b5061015a6103f8366004611a03565b6001600160a01b0316600090815261012e602052604090205460ff1690565b60006001600160e01b03198216637965db0b60e01b148061044857506301ffc9a760e01b6001600160e01b03198316145b92915050565b60fb5460ff161561047a5760405162461bcd60e51b815260040161047190611b5d565b60405180910390fd5b610485600033610cc7565b806104c757506104c761012d6040516104b2906d4e46545f41444d494e5f524f4c4560901b8152600e0190565b90815260200160405180910390205433610cc7565b6105095760405162461bcd60e51b81526020600482015260136024820152726572726f7220696e206772616e7420726f6c6560681b6044820152606401610471565b6105386040518060400160405280600e81526020016d4e46545f41444d494e5f524f4c4560901b815250610dbf565b82036105a957610549600033610cc7565b6105a95760405162461bcd60e51b815260206004820152602b60248201527f4f6e6c792044656661756c742061646d696e2063616e206772616e74204e465460448201526a2041646d696e20726f6c6560a81b6064820152608401610471565b6105b38282611163565b5050565b6001600160a01b03811633146106275760405162461bcd60e51b815260206004820152602f60248201527f416363657373436f6e74726f6c3a2063616e206f6e6c792072656e6f756e636560448201526e103937b632b9903337b91039b2b63360891b6064820152608401610471565b6105b382826111e9565b6001600160a01b037f00000000000000000000000000000000000000000000000000000000000000001630036106795760405162461bcd60e51b815260040161047190611b87565b7f00000000000000000000000000000000000000000000000000000000000000006001600160a01b03166106c2600080516020611e1c833981519152546001600160a01b031690565b6001600160a01b0316146106e85760405162461bcd60e51b815260040161047190611bd3565b6106f181611250565b6040805160008082526020820190925261070d9183919061127e565b50565b600061071c81336113ee565b60fb5460ff161561073f5760405162461bcd60e51b815260040161047190611b5d565b61070d611452565b6001600160a01b037f000000000000000000000000000000000000000000000000000000000000000016300361078f5760405162461bcd60e51b815260040161047190611b87565b7f00000000000000000000000000000000000000000000000000000000000000006001600160a01b03166107d8600080516020611e1c833981519152546001600160a01b031690565b6001600160a01b0316146107fe5760405162461bcd60e51b815260040161047190611bd3565b61080782611250565b6105b38282600161127e565b6000306001600160a01b037f000000000000000000000000000000000000000000000000000000000000000016146108b35760405162461bcd60e51b815260206004820152603860248201527f555550535570677261646561626c653a206d757374206e6f742062652063616c60448201527f6c6564207468726f7567682064656c656761746563616c6c00000000000000006064820152608401610471565b50600080516020611e1c83398151915290565b60fb5460ff16156108e95760405162461bcd60e51b815260040161047190611b5d565b61091561012d6040516104b290724d4953544552595f424f585f4144445245535360681b815260130190565b6109875760405162461bcd60e51b815260206004820152603960248201527f4572726f722c20746865206164647265737320646f6573206e6f74206861766560448201527f206d69737465727920626f78206164647265737320726f6c65000000000000006064820152608401610471565b806001600160a01b0316600080516020611e3c8339815191526040516109d790602080825260169082015275416464206163636f756e7420746f2070726573616c6560501b604082015260600190565b60405180910390a26001600160a01b0316600090815261012f60205260409020805460ff19166001179055565b600054610100900460ff16610a1f5760005460ff1615610a23565b303b155b610a865760405162461bcd60e51b815260206004820152602e60248201527f496e697469616c697a61626c653a20636f6e747261637420697320616c72656160448201526d191e481a5b9a5d1a585b1a5e995960921b6064820152608401610471565b600054610100900460ff16158015610aa8576000805461ffff19166101011790555b610ab06114be565b610ab86114be565b610ac06114e7565b7fd4dd364b99254967de7b77fa79c0f7835d1d5ebdb779edee0c386bda7d2cc48261012d604051610b05906d4e46545f41444d494e5f524f4c4560901b8152600e0190565b90815260408051918290036020018220929092556a4152544953545f524f4c4560a81b815261012d600b808301829052835192839003602b90810184207f877a78dc988c0ec5f58453b44888a55eb39755c3d5ed8d8ea990912aa3ef29c69055724d4953544552595f424f585f4144445245535360681b84526013840183905284519384900360330184207f98ce3cc9c55bd6e55ac77a2588c2c9881962bbe8cd46759f05027c0b8f1531f190556a49434f5f4144445245535360a81b84529083018290528351928390030182207f2eb26c1b7687e2a70d3bc8a9d2071aa8b9ad550a7ceefc3cc8721f27273e847690556e4e46545f4152545f4144445245535360881b8252600f8201819052825191829003602f0182207f5b4167d411499628ccd2aef50b96b841082f9a1d0905caf009cbe892c360736890556d4e46545f41444d494e5f524f4c4560901b8252600e8201529051602e9181900391909101902054610c7290336105a9565b610c7d6000336105a9565b801561070d576000805461ff001916905550565b6000610c9d81336113ee565b60fb5460ff16610cbf5760405162461bcd60e51b815260040161047190611c1f565b61070d611516565b60009182526065602090815260408084206001600160a01b0393909316845291905290205460ff1690565b60fb5460ff1615610d155760405162461bcd60e51b815260040161047190611b5d565b610d4061012d6040516104b2907144454641554c545f41444d494e5f524f4c4560701b815260120190565b610d745760405162461bcd60e51b815260206004820152600560248201526432b93937b960d91b6044820152606401610471565b80604051602001610d859190611c79565b6040516020818303038152906040528051906020012061012d82604051610dac9190611c79565b9081526040519081900360200190205550565b600061012d82604051610dd29190611c79565b9081526020016040518091039020549050919050565b60fb5460ff1615610e0b5760405162461bcd60e51b815260040161047190611b5d565b6000610e1781336113ee565b816001600160a01b0316600080516020611e3c833981519152604051610e6c906020808252818101527f72656d6f7665206163636f756e742066726f6d20707269766174652073616c65604082015260600190565b60405180910390a2506001600160a01b0316600090815261012e60205260409020805460ff19169055565b60fb5460ff1615610eba5760405162461bcd60e51b815260040161047190611b5d565b6000610ec681336113ee565b816001600160a01b0316600080516020611e3c833981519152604051610f1d906020808252601b908201527f72656d6f7665206163636f756e742066726f6d2070726573616c650000000000604082015260600190565b60405180910390a2506001600160a01b0316600090815261012f60205260409020805460ff19169055565b60fb5460ff1615610f6b5760405162461bcd60e51b815260040161047190611b5d565b81610fb85760405162461bcd60e51b815260206004820152601f60248201527f43616e2774207265766f6b652064656661756c742061646d696e20726f6c65006044820152606401610471565b610fc3600033610cc7565b80610ff05750610ff061012d6040516104b2906d4e46545f41444d494e5f524f4c4560901b8152600e0190565b6110335760405162461bcd60e51b81526020600482015260146024820152736572726f7220696e207265766f6b6520726f6c6560601b6044820152606401610471565b61103d8282610cc7565b15156110498333610cc7565b1515036106275761105b600033610cc7565b6106275760405162461bcd60e51b815260206004820152601660248201527543616e2774207265766f6b652073616d6520726f6c6560501b6044820152606401610471565b60fb5460ff16156110c35760405162461bcd60e51b815260040161047190611b5d565b60006110cf81336113ee565b816001600160a01b0316600080516020611e3c833981519152604051611126906020808252601b908201527f416464206163636f756e7420746f20707269766174652073616c650000000000604082015260600190565b60405180910390a2506001600160a01b0316600090815261012e60205260409020805460ff19166001179055565b6001600160a01b03163b151590565b61116d8282610cc7565b6105b35760008281526065602090815260408083206001600160a01b03851684529091529020805460ff191660011790556111a53390565b6001600160a01b0316816001600160a01b0316837f2f8788117e7eff1d82e926ec794901d17c78024a50270940304540a733656f0d60405160405180910390a45050565b6111f38282610cc7565b156105b35760008281526065602090815260408083206001600160a01b0385168085529252808320805460ff1916905551339285917ff6391f5c32d9c69d2a47ea670b442974b53935d1edc7fd64eb21e047a839171b9190a45050565b600061125c81336113ee565b60fb5460ff166105b35760405162461bcd60e51b815260040161047190611c1f565b7f4910fdfa16fed3260ed0e7147f7cc6da11a60208b5b9406d12a635614ffd91435460ff16156112b6576112b18361156e565b505050565b826001600160a01b03166352d1902d6040518163ffffffff1660e01b8152600401602060405180830381865afa925050508015611310575060408051601f3d908101601f1916820190925261130d91810190611c95565b60015b6113735760405162461bcd60e51b815260206004820152602e60248201527f45524331393637557067726164653a206e657720696d706c656d656e7461746960448201526d6f6e206973206e6f74205555505360901b6064820152608401610471565b600080516020611e1c83398151915281146113e25760405162461bcd60e51b815260206004820152602960248201527f45524331393637557067726164653a20756e737570706f727465642070726f786044820152681a58589b195555525160ba1b6064820152608401610471565b506112b183838361160a565b6113f88282610cc7565b6105b357611410816001600160a01b03166014611635565b61141b836020611635565b60405160200161142c929190611cae565b60408051601f198184030181529082905262461bcd60e51b825261047191600401611d23565b60fb5460ff166114745760405162461bcd60e51b815260040161047190611c1f565b60fb805460ff191690557f5db9ee0a495bf2e6ff9c91a7834c1ba4fdd244a5e8aa4e537bd38aeae4b073aa335b6040516001600160a01b03909116815260200160405180910390a1565b600054610100900460ff166114e55760405162461bcd60e51b815260040161047190611d56565b565b600054610100900460ff1661150e5760405162461bcd60e51b815260040161047190611d56565b6114e56117d8565b60fb5460ff16156115395760405162461bcd60e51b815260040161047190611b5d565b60fb805460ff191660011790557f62e78cea01bee320cd4e420270b5ea74000d11b0c9f74754ebdbfc544b05a2586114a13390565b6001600160a01b0381163b6115db5760405162461bcd60e51b815260206004820152602d60248201527f455243313936373a206e657720696d706c656d656e746174696f6e206973206e60448201526c1bdd08184818dbdb9d1c9858dd609a1b6064820152608401610471565b600080516020611e1c83398151915280546001600160a01b0319166001600160a01b0392909216919091179055565b6116138361180b565b6000825111806116205750805b156112b15761162f838361184b565b50505050565b60606000611644836002611db7565b61164f906002611dd6565b67ffffffffffffffff81111561166757611667611a1e565b6040519080825280601f01601f191660200182016040528015611691576020820181803683370190505b509050600360fc1b816000815181106116ac576116ac611dee565b60200101906001600160f81b031916908160001a905350600f60fb1b816001815181106116db576116db611dee565b60200101906001600160f81b031916908160001a90535060006116ff846002611db7565b61170a906001611dd6565b90505b6001811115611782576f181899199a1a9b1b9c1cb0b131b232b360811b85600f166010811061173e5761173e611dee565b1a60f81b82828151811061175457611754611dee565b60200101906001600160f81b031916908160001a90535060049490941c9361177b81611e04565b905061170d565b5083156117d15760405162461bcd60e51b815260206004820181905260248201527f537472696e67733a20686578206c656e67746820696e73756666696369656e746044820152606401610471565b9392505050565b600054610100900460ff166117ff5760405162461bcd60e51b815260040161047190611d56565b60fb805460ff19169055565b6118148161156e565b6040516001600160a01b038216907fbc7cd75a20ee27fd9adebab32041f755214dbc6bffa90cc0225b39da2e5c2d3b90600090a250565b60606001600160a01b0383163b6118b35760405162461bcd60e51b815260206004820152602660248201527f416464726573733a2064656c65676174652063616c6c20746f206e6f6e2d636f6044820152651b9d1c9858dd60d21b6064820152608401610471565b600080846001600160a01b0316846040516118ce9190611c79565b600060405180830381855af49150503d8060008114611909576040519150601f19603f3d011682016040523d82523d6000602084013e61190e565b606091505b50915091506119368282604051806060016040528060278152602001611e5c6027913961193f565b95945050505050565b6060831561194e5750816117d1565b82511561195e5782518084602001fd5b8160405162461bcd60e51b81526004016104719190611d23565b60006020828403121561198a57600080fd5b81356001600160e01b0319811681146117d157600080fd5b6000602082840312156119b457600080fd5b5035919050565b80356001600160a01b03811681146119d257600080fd5b919050565b600080604083850312156119ea57600080fd5b823591506119fa602084016119bb565b90509250929050565b600060208284031215611a1557600080fd5b6117d1826119bb565b634e487b7160e01b600052604160045260246000fd5b600067ffffffffffffffff80841115611a4f57611a4f611a1e565b604051601f8501601f19908116603f01168101908282118183101715611a7757611a77611a1e565b81604052809350858152868686011115611a9057600080fd5b858560208301376000602087830101525050509392505050565b60008060408385031215611abd57600080fd5b611ac6836119bb565b9150602083013567ffffffffffffffff811115611ae257600080fd5b8301601f81018513611af357600080fd5b611b0285823560208401611a34565b9150509250929050565b600060208284031215611b1e57600080fd5b813567ffffffffffffffff811115611b3557600080fd5b8201601f81018413611b4657600080fd5b611b5584823560208401611a34565b949350505050565b60208082526010908201526f14185d5cd8589b194e881c185d5cd95960821b604082015260600190565b6020808252602c908201527f46756e6374696f6e206d7573742062652063616c6c6564207468726f7567682060408201526b19195b1959d85d1958d85b1b60a21b606082015260800190565b6020808252602c908201527f46756e6374696f6e206d7573742062652063616c6c6564207468726f7567682060408201526b6163746976652070726f787960a01b606082015260800190565b60208082526014908201527314185d5cd8589b194e881b9bdd081c185d5cd95960621b604082015260600190565b60005b83811015611c68578181015183820152602001611c50565b8381111561162f5750506000910152565b60008251611c8b818460208701611c4d565b9190910192915050565b600060208284031215611ca757600080fd5b5051919050565b7f416363657373436f6e74726f6c3a206163636f756e7420000000000000000000815260008351611ce6816017850160208801611c4d565b7001034b99036b4b9b9b4b733903937b6329607d1b6017918401918201528351611d17816028840160208801611c4d565b01602801949350505050565b6020815260008251806020840152611d42816040850160208701611c4d565b601f01601f19169190910160400192915050565b6020808252602b908201527f496e697469616c697a61626c653a20636f6e7472616374206973206e6f74206960408201526a6e697469616c697a696e6760a81b606082015260800190565b634e487b7160e01b600052601160045260246000fd5b6000816000190483118215151615611dd157611dd1611da1565b500290565b60008219821115611de957611de9611da1565b500190565b634e487b7160e01b600052603260045260246000fd5b600081611e1357611e13611da1565b50600019019056fe360894a13ba1a3210667c828492db98dca3e2076cc3735a920a3ca505d382bbc1922d7af079f5d2f75b8e240c50474ee035e281bf61fa1940d0efad96324978c416464726573733a206c6f772d6c6576656c2064656c65676174652063616c6c206661696c6564a2646970667358221220c4e0e4818b30e9c687cc83277b169cf279705cba0738dc72fb9242c79221e56d64736f6c634300080d0033",
    "sourcePath": "c:/Users/mateo/Desktop/DappsFactory/tokenVesting_2/contracts/Roles.sol",
    "compiler": {
        "name": "solc",
        "version": "0.8.13+commit.abaa5c0e"
    },
    "functionHashes": {
        "DEFAULT_ADMIN_ROLE()": "a217fddf",
        "addPreSaleWhitelist(address)": "78f03945",
        "addPrivateSaleWhitelist(address)": "e376078b",
        "createRole(string)": "af17d38a",
        "getHashRole(string)": "b7906ffd",
        "getRoleAdmin(bytes32)": "248a9ca3",
        "grantRole(bytes32,address)": "2f2ff15d",
        "hasRole(bytes32,address)": "91d14854",
        "initialize()": "8129fc1c",
        "isPreSaleWhitelisted(address)": "86bd9121",
        "isPrivateWhitelisted(address)": "f82aa41c",
        "pause()": "8456cb59",
        "paused()": "5c975abb",
        "proxiableUUID()": "52d1902d",
        "removePreSaleWhitelist(address)": "c68f7b58",
        "removePrivateSaleWhitelist(address)": "bdcdd4b3",
        "renounceRole(bytes32,address)": "36568abe",
        "revokeRole(bytes32,address)": "d547741f",
        "supportsInterface(bytes4)": "01ffc9a7",
        "unpause()": "3f4ba83a",
        "upgradeTo(address)": "3659cfe6",
        "upgradeToAndCall(address,bytes)": "4f1ef286"
    },
    "gasEstimates": {
        "creation": {
            "codeDepositCost": "1572800",
            "executionCost": "infinite",
            "totalCost": "infinite"
        },
        "external": {
            "DEFAULT_ADMIN_ROLE()": "284",
            "addPreSaleWhitelist(address)": "infinite",
            "addPrivateSaleWhitelist(address)": "infinite",
            "createRole(string)": "infinite",
            "getHashRole(string)": "infinite",
            "getRoleAdmin(bytes32)": "2490",
            "grantRole(bytes32,address)": "infinite",
            "hasRole(bytes32,address)": "2721",
            "initialize()": "infinite",
            "isPreSaleWhitelisted(address)": "2583",
            "isPrivateWhitelisted(address)": "2670",
            "pause()": "infinite",
            "paused()": "2382",
            "proxiableUUID()": "infinite",
            "removePreSaleWhitelist(address)": "infinite",
            "removePrivateSaleWhitelist(address)": "infinite",
            "renounceRole(bytes32,address)": "29091",
            "revokeRole(bytes32,address)": "infinite",
            "supportsInterface(bytes4)": "450",
            "unpause()": "infinite",
            "upgradeTo(address)": "infinite",
            "upgradeToAndCall(address,bytes)": "infinite"
        },
        "internal": {
            "_authorizeUpgrade(address)": "infinite"
        }
    }
}