{
    "contractName": "TokenVestingModificado",
    "abi": [
        {
            "inputs": [
                {
                    "internalType": "address",
                    "name": "token_",
                    "type": "address"
                },
                {
                    "internalType": "address",
                    "name": "roles_",
                    "type": "address"
                }
            ],
            "stateMutability": "nonpayable",
            "type": "constructor"
        },
        {
            "anonymous": false,
            "inputs": [
                {
                    "indexed": true,
                    "internalType": "address",
                    "name": "previousOwner",
                    "type": "address"
                },
                {
                    "indexed": true,
                    "internalType": "address",
                    "name": "newOwner",
                    "type": "address"
                }
            ],
            "name": "OwnershipTransferred",
            "type": "event"
        },
        {
            "anonymous": false,
            "inputs": [
                {
                    "indexed": false,
                    "internalType": "uint256",
                    "name": "amount",
                    "type": "uint256"
                }
            ],
            "name": "Released",
            "type": "event"
        },
        {
            "anonymous": false,
            "inputs": [],
            "name": "Revoked",
            "type": "event"
        },
        {
            "stateMutability": "payable",
            "type": "fallback"
        },
        {
            "inputs": [],
            "name": "DEFAULT_ADMIN_ROLE",
            "outputs": [
                {
                    "internalType": "bytes32",
                    "name": "",
                    "type": "bytes32"
                }
            ],
            "stateMutability": "view",
            "type": "function"
        },
        {
            "inputs": [
                {
                    "internalType": "uint256",
                    "name": "_amount",
                    "type": "uint256"
                },
                {
                    "internalType": "bytes32",
                    "name": "_scheduleId",
                    "type": "bytes32"
                }
            ],
            "name": "addTotalAmount",
            "outputs": [],
            "stateMutability": "nonpayable",
            "type": "function"
        },
        {
            "inputs": [
                {
                    "internalType": "address",
                    "name": "holder",
                    "type": "address"
                }
            ],
            "name": "computeNextVestingScheduleIdForHolder",
            "outputs": [
                {
                    "internalType": "bytes32",
                    "name": "",
                    "type": "bytes32"
                }
            ],
            "stateMutability": "view",
            "type": "function"
        },
        {
            "inputs": [
                {
                    "internalType": "bytes32",
                    "name": "vestingScheduleId",
                    "type": "bytes32"
                }
            ],
            "name": "computeReleasableAmount",
            "outputs": [
                {
                    "internalType": "uint256",
                    "name": "",
                    "type": "uint256"
                }
            ],
            "stateMutability": "view",
            "type": "function"
        },
        {
            "inputs": [
                {
                    "internalType": "address",
                    "name": "holder",
                    "type": "address"
                },
                {
                    "internalType": "uint256",
                    "name": "index",
                    "type": "uint256"
                }
            ],
            "name": "computeVestingScheduleIdForAddressAndIndex",
            "outputs": [
                {
                    "internalType": "bytes32",
                    "name": "",
                    "type": "bytes32"
                }
            ],
            "stateMutability": "pure",
            "type": "function"
        },
        {
            "inputs": [
                {
                    "internalType": "address",
                    "name": "_beneficiary",
                    "type": "address"
                },
                {
                    "internalType": "uint256",
                    "name": "_start",
                    "type": "uint256"
                },
                {
                    "internalType": "uint256",
                    "name": "_cliff",
                    "type": "uint256"
                },
                {
                    "internalType": "uint256",
                    "name": "_duration",
                    "type": "uint256"
                },
                {
                    "internalType": "uint256",
                    "name": "_slicePeriodSeconds",
                    "type": "uint256"
                },
                {
                    "internalType": "bool",
                    "name": "_revocable",
                    "type": "bool"
                },
                {
                    "internalType": "uint256",
                    "name": "_amount",
                    "type": "uint256"
                },
                {
                    "internalType": "address",
                    "name": "_stageContract",
                    "type": "address"
                }
            ],
            "name": "createVestingSchedule",
            "outputs": [],
            "stateMutability": "nonpayable",
            "type": "function"
        },
        {
            "inputs": [
                {
                    "internalType": "address",
                    "name": "holder",
                    "type": "address"
                }
            ],
            "name": "getLastVestingScheduleForHolder",
            "outputs": [
                {
                    "components": [
                        {
                            "internalType": "bool",
                            "name": "initialized",
                            "type": "bool"
                        },
                        {
                            "internalType": "address",
                            "name": "beneficiary",
                            "type": "address"
                        },
                        {
                            "internalType": "uint256",
                            "name": "cliff",
                            "type": "uint256"
                        },
                        {
                            "internalType": "uint256",
                            "name": "start",
                            "type": "uint256"
                        },
                        {
                            "internalType": "uint256",
                            "name": "duration",
                            "type": "uint256"
                        },
                        {
                            "internalType": "uint256",
                            "name": "slicePeriodSeconds",
                            "type": "uint256"
                        },
                        {
                            "internalType": "bool",
                            "name": "revocable",
                            "type": "bool"
                        },
                        {
                            "internalType": "uint256",
                            "name": "amountTotal",
                            "type": "uint256"
                        },
                        {
                            "internalType": "uint256",
                            "name": "released",
                            "type": "uint256"
                        },
                        {
                            "internalType": "bool",
                            "name": "revoked",
                            "type": "bool"
                        },
                        {
                            "internalType": "address",
                            "name": "stage",
                            "type": "address"
                        }
                    ],
                    "internalType": "struct TokenVestingModificado.VestingSchedule",
                    "name": "",
                    "type": "tuple"
                }
            ],
            "stateMutability": "view",
            "type": "function"
        },
        {
            "inputs": [],
            "name": "getToken",
            "outputs": [
                {
                    "internalType": "address",
                    "name": "",
                    "type": "address"
                }
            ],
            "stateMutability": "view",
            "type": "function"
        },
        {
            "inputs": [
                {
                    "internalType": "uint256",
                    "name": "index",
                    "type": "uint256"
                }
            ],
            "name": "getVestingIdAtIndex",
            "outputs": [
                {
                    "internalType": "bytes32",
                    "name": "",
                    "type": "bytes32"
                }
            ],
            "stateMutability": "view",
            "type": "function"
        },
        {
            "inputs": [
                {
                    "internalType": "bytes32",
                    "name": "vestingScheduleId",
                    "type": "bytes32"
                }
            ],
            "name": "getVestingSchedule",
            "outputs": [
                {
                    "components": [
                        {
                            "internalType": "bool",
                            "name": "initialized",
                            "type": "bool"
                        },
                        {
                            "internalType": "address",
                            "name": "beneficiary",
                            "type": "address"
                        },
                        {
                            "internalType": "uint256",
                            "name": "cliff",
                            "type": "uint256"
                        },
                        {
                            "internalType": "uint256",
                            "name": "start",
                            "type": "uint256"
                        },
                        {
                            "internalType": "uint256",
                            "name": "duration",
                            "type": "uint256"
                        },
                        {
                            "internalType": "uint256",
                            "name": "slicePeriodSeconds",
                            "type": "uint256"
                        },
                        {
                            "internalType": "bool",
                            "name": "revocable",
                            "type": "bool"
                        },
                        {
                            "internalType": "uint256",
                            "name": "amountTotal",
                            "type": "uint256"
                        },
                        {
                            "internalType": "uint256",
                            "name": "released",
                            "type": "uint256"
                        },
                        {
                            "internalType": "bool",
                            "name": "revoked",
                            "type": "bool"
                        },
                        {
                            "internalType": "address",
                            "name": "stage",
                            "type": "address"
                        }
                    ],
                    "internalType": "struct TokenVestingModificado.VestingSchedule",
                    "name": "",
                    "type": "tuple"
                }
            ],
            "stateMutability": "view",
            "type": "function"
        },
        {
            "inputs": [
                {
                    "internalType": "address",
                    "name": "holder",
                    "type": "address"
                },
                {
                    "internalType": "uint256",
                    "name": "index",
                    "type": "uint256"
                }
            ],
            "name": "getVestingScheduleByAddressAndIndex",
            "outputs": [
                {
                    "components": [
                        {
                            "internalType": "bool",
                            "name": "initialized",
                            "type": "bool"
                        },
                        {
                            "internalType": "address",
                            "name": "beneficiary",
                            "type": "address"
                        },
                        {
                            "internalType": "uint256",
                            "name": "cliff",
                            "type": "uint256"
                        },
                        {
                            "internalType": "uint256",
                            "name": "start",
                            "type": "uint256"
                        },
                        {
                            "internalType": "uint256",
                            "name": "duration",
                            "type": "uint256"
                        },
                        {
                            "internalType": "uint256",
                            "name": "slicePeriodSeconds",
                            "type": "uint256"
                        },
                        {
                            "internalType": "bool",
                            "name": "revocable",
                            "type": "bool"
                        },
                        {
                            "internalType": "uint256",
                            "name": "amountTotal",
                            "type": "uint256"
                        },
                        {
                            "internalType": "uint256",
                            "name": "released",
                            "type": "uint256"
                        },
                        {
                            "internalType": "bool",
                            "name": "revoked",
                            "type": "bool"
                        },
                        {
                            "internalType": "address",
                            "name": "stage",
                            "type": "address"
                        }
                    ],
                    "internalType": "struct TokenVestingModificado.VestingSchedule",
                    "name": "",
                    "type": "tuple"
                }
            ],
            "stateMutability": "view",
            "type": "function"
        },
        {
            "inputs": [],
            "name": "getVestingSchedulesCount",
            "outputs": [
                {
                    "internalType": "uint256",
                    "name": "",
                    "type": "uint256"
                }
            ],
            "stateMutability": "view",
            "type": "function"
        },
        {
            "inputs": [
                {
                    "internalType": "address",
                    "name": "_beneficiary",
                    "type": "address"
                }
            ],
            "name": "getVestingSchedulesCountByBeneficiary",
            "outputs": [
                {
                    "internalType": "uint256",
                    "name": "",
                    "type": "uint256"
                }
            ],
            "stateMutability": "view",
            "type": "function"
        },
        {
            "inputs": [],
            "name": "getVestingSchedulesTotalAmount",
            "outputs": [
                {
                    "internalType": "uint256",
                    "name": "",
                    "type": "uint256"
                }
            ],
            "stateMutability": "view",
            "type": "function"
        },
        {
            "inputs": [],
            "name": "getWithdrawableAmount",
            "outputs": [
                {
                    "internalType": "uint256",
                    "name": "",
                    "type": "uint256"
                }
            ],
            "stateMutability": "view",
            "type": "function"
        },
        {
            "inputs": [],
            "name": "owner",
            "outputs": [
                {
                    "internalType": "address",
                    "name": "",
                    "type": "address"
                }
            ],
            "stateMutability": "view",
            "type": "function"
        },
        {
            "inputs": [
                {
                    "internalType": "bytes32",
                    "name": "vestingScheduleId",
                    "type": "bytes32"
                },
                {
                    "internalType": "uint256",
                    "name": "amount",
                    "type": "uint256"
                }
            ],
            "name": "release",
            "outputs": [],
            "stateMutability": "nonpayable",
            "type": "function"
        },
        {
            "inputs": [],
            "name": "renounceOwnership",
            "outputs": [],
            "stateMutability": "nonpayable",
            "type": "function"
        },
        {
            "inputs": [
                {
                    "internalType": "bytes32",
                    "name": "vestingScheduleId",
                    "type": "bytes32"
                }
            ],
            "name": "revoke",
            "outputs": [],
            "stateMutability": "nonpayable",
            "type": "function"
        },
        {
            "inputs": [
                {
                    "internalType": "address",
                    "name": "newOwner",
                    "type": "address"
                }
            ],
            "name": "transferOwnership",
            "outputs": [],
            "stateMutability": "nonpayable",
            "type": "function"
        },
        {
            "inputs": [
                {
                    "internalType": "uint256",
                    "name": "amount",
                    "type": "uint256"
                }
            ],
            "name": "withdraw",
            "outputs": [],
            "stateMutability": "nonpayable",
            "type": "function"
        },
        {
            "stateMutability": "payable",
            "type": "receive"
        }
    ],
    "bytecode": "60c06040523480156200001157600080fd5b5060405162001ef238038062001ef28339810160408190526200003491620000f0565b6200003f3362000083565b600180556001600160a01b0382166200005757600080fd5b6001600160a01b0381166200006b57600080fd5b6001600160a01b039182166080521660a05262000128565b600080546001600160a01b038381166001600160a01b0319831681178455604051919092169283917f8be0079c531659141344cd1fd0a4f28419497f9722a3daafe3b4186f6b6457e09190a35050565b80516001600160a01b0381168114620000eb57600080fd5b919050565b600080604083850312156200010457600080fd5b6200010f83620000d3565b91506200011f60208401620000d3565b90509250929050565b60805160a051611d886200016a600039600081816105b401526106b701526000818161015e0152818161055501528181610eb401526110a10152611d886000f3fe6080604052600436106101225760003560e01c80638af104da116100a5578063b75c7dc61161006c578063b75c7dc61461032b578063ea1bb3d51461034b578063f2fde38b1461036b578063f51321d71461038b578063f7c469f0146103ab578063f9079b37146103cb57005b80638af104da146102a35780638da5cb5b146102c357806390be10cc146102e15780639ef346b4146102f6578063a217fddf1461031657005b80635a7bb69a116100e95780635a7bb69a146101eb57806366afd8ef146102215780636b8e958514610241578063715018a6146102615780637e913dc61461027657005b8063130836171461012b57806321df0da71461014f5780632e1a7d4d1461019657806348deb471146101b65780634f05419d146101cb57005b3661012957005b005b34801561013757600080fd5b506002545b6040519081526020015b60405180910390f35b34801561015b57600080fd5b507f00000000000000000000000000000000000000000000000000000000000000005b6040516001600160a01b039091168152602001610146565b3480156101a257600080fd5b506101296101b1366004611a0d565b6103eb565b3480156101c257600080fd5b5060045461013c565b3480156101d757600080fd5b506101296101e6366004611a50565b610583565b3480156101f757600080fd5b5061013c610206366004611ac6565b6001600160a01b031660009081526005602052604090205490565b34801561022d57600080fd5b5061012961023c366004611ae1565b610c0f565b34801561024d57600080fd5b5061012961025c366004611ae1565b610ee9565b34801561026d57600080fd5b50610129610f16565b34801561028257600080fd5b50610296610291366004611ac6565b610f4c565b6040516101469190611b03565b3480156102af57600080fd5b5061013c6102be366004611ba2565b61102f565b3480156102cf57600080fd5b506000546001600160a01b031661017e565b3480156102ed57600080fd5b5061013c611076565b34801561030257600080fd5b50610296610311366004611a0d565b611117565b34801561032257600080fd5b5061013c600081565b34801561033757600080fd5b50610129610346366004611a0d565b6111c9565b34801561035757600080fd5b5061013c610366366004611a0d565b61139d565b34801561037757600080fd5b50610129610386366004611ac6565b611492565b34801561039757600080fd5b506102966103a6366004611ba2565b61152d565b3480156103b757600080fd5b5061013c6103c6366004611ac6565b611549565b3480156103d757600080fd5b5061013c6103e6366004611a0d565b611573565b6002600154036104425760405162461bcd60e51b815260206004820152601f60248201527f5265656e7472616e637947756172643a207265656e7472616e742063616c6c0060448201526064015b60405180910390fd5b60026001556000546001600160a01b031633146104715760405162461bcd60e51b815260040161043990611bcc565b80306001600160a01b03166390be10cc6040518163ffffffff1660e01b8152600401602060405180830381865afa1580156104b0573d6000803e3d6000fd5b505050506040513d601f19601f820116820180604052508101906104d49190611c01565b10156105365760405162461bcd60e51b815260206004820152602b60248201527f546f6b656e56657374696e673a206e6f7420656e6f756768207769746864726160448201526a7761626c652066756e647360a81b6064820152608401610439565b61057c61054b6000546001600160a01b031690565b6001600160a01b037f00000000000000000000000000000000000000000000000000000000000000001690836115fb565b5060018055565b60405163b7906ffd60e01b815260206004820152600b60248201526a49434f5f4144445245535360a81b60448201527f00000000000000000000000000000000000000000000000000000000000000006001600160a01b0316906391d1485490829063b7906ffd90606401602060405180830381865afa15801561060b573d6000803e3d6000fd5b505050506040513d601f19601f8201168201806040525081019061062f9190611c01565b6040516001600160e01b031960e084901b1681526004810191909152336024820152604401602060405180830381865afa158015610671573d6000803e3d6000fd5b505050506040513d601f19601f820116820180604052508101906106959190611c1a565b8061072a5750604051632474521560e21b8152600060048201523360248201527f00000000000000000000000000000000000000000000000000000000000000006001600160a01b0316906391d1485490604401602060405180830381865afa158015610706573d6000803e3d6000fd5b505050506040513d601f19601f8201168201806040525081019061072a9190611c1a565b61078b5760405162461bcd60e51b815260206004820152602c60248201527f43616c6c6572206973206e6f742076657374696e6720636f6e7472616374206e60448201526b37b9103a34329037bbb732b960a11b6064820152608401610439565b81306001600160a01b03166390be10cc6040518163ffffffff1660e01b8152600401602060405180830381865afa1580156107ca573d6000803e3d6000fd5b505050506040513d601f19601f820116820180604052508101906107ee9190611c01565b10156108755760405162461bcd60e51b815260206004820152604a60248201527f546f6b656e56657374696e673a2063616e6e6f7420637265617465207665737460448201527f696e67207363686564756c652062656361757365206e6f742073756666696369606482015269656e7420746f6b656e7360b01b608482015260a401610439565b600085116108d05760405162461bcd60e51b815260206004820152602260248201527f546f6b656e56657374696e673a206475726174696f6e206d757374206265203e604482015261020360f41b6064820152608401610439565b600082116109205760405162461bcd60e51b815260206004820181905260248201527f546f6b656e56657374696e673a20616d6f756e74206d757374206265203e20306044820152606401610439565b60018410156109875760405162461bcd60e51b815260206004820152602d60248201527f546f6b656e56657374696e673a20736c696365506572696f645365636f6e647360448201526c206d757374206265203e3d203160981b6064820152608401610439565b604051630f7c469f60e41b81526001600160a01b0389166004820152600090309063f7c469f090602401602060405180830381865afa1580156109ce573d6000803e3d6000fd5b505050506040513d601f19601f820116820180604052508101906109f29190611c01565b90506000610a008989611652565b90506040518061016001604052806001151581526020018b6001600160a01b031681526020018281526020018a8152602001888152602001878152602001861515815260200185815260200160008152602001600015158152602001846001600160a01b03168152506003600084815260200190815260200160002060008201518160000160006101000a81548160ff02191690831515021790555060208201518160000160016101000a8154816001600160a01b0302191690836001600160a01b0316021790555060408201518160010155606082015181600201556080820151816003015560a0820151816004015560c08201518160050160006101000a81548160ff02191690831515021790555060e0820151816006015561010082015181600701556101208201518160080160006101000a81548160ff0219169083151502179055506101408201518160080160016101000a8154816001600160a01b0302191690836001600160a01b03160217905550905050610b8d8460045461165290919063ffffffff16565b6004556002805460018181019092557f405787fa12a823e0f2b7631cc41b3ba8828b3321ca811111fa75cd3aa3bb5ace018390556001600160a01b038b1660009081526005602052604090205490610be6908290611652565b6001600160a01b03909b1660009081526005602052604090209a909a5550505050505050505050565b600260015403610c615760405162461bcd60e51b815260206004820152601f60248201527f5265656e7472616e637947756172643a207265656e7472616e742063616c6c006044820152606401610439565b60026001908155600083815260036020526040902054839160ff909116151514610c8a57600080fd5b60008181526003602052604090206008015460ff1615610ca957600080fd5b6000838152600360205260408120805491549091336001600160a01b03610100909204821681149291909116148180610cdf5750805b610d5c5760405162461bcd60e51b815260206004820152604260248201527f546f6b656e56657374696e673a206f6e6c792062656e6566696369617279206160448201527f6e64206f776e65722063616e2072656c656173652076657374656420746f6b656064820152616e7360f01b608482015260a401610439565b6040805161016081018252845460ff808216151583526001600160a01b0361010092839004811660208501526001880154948401949094526002870154606084015260038701546080840152600487015460a084015260058701548116151560c0840152600687015460e08401526007870154828401526008870154908116151561012084015204909116610140820152600090610df99061165e565b905085811015610e715760405162461bcd60e51b815260206004820152603d60248201527f546f6b656e56657374696e673a2063616e6e6f742072656c6561736520746f6b60448201527f656e732c206e6f7420656e6f7567682076657374656420746f6b656e730000006064820152608401610439565b6007840154610e809087611652565b600785015583546004546101009091046001600160a01b031690610ea49088611741565b600455610edb6001600160a01b037f00000000000000000000000000000000000000000000000000000000000000001682896115fb565b505060018055505050505050565b600081815260036020526040812060068101805491928592610f0c908490611c4d565b9091555050505050565b6000546001600160a01b03163314610f405760405162461bcd60e51b815260040161043990611bcc565b610f4a600061174d565b565b610f5461199b565b6001600160a01b03821660009081526005602052604081205460039190610f839085906102be90600190611c65565b81526020808201929092526040908101600020815161016081018352815460ff808216151583526001600160a01b03610100928390048116968401969096526001840154948301949094526002830154606083015260038301546080830152600483015460a083015260058301548416151560c0830152600683015460e08301526007830154818301526008909201549283161515610120820152910490911661014082015292915050565b6040516bffffffffffffffffffffffff19606084901b1660208201526034810182905260009060540160405160208183030381529060405280519060200120905092915050565b600480546040516370a0823160e01b8152309281019290925260009161111291906001600160a01b037f000000000000000000000000000000000000000000000000000000000000000016906370a0823190602401602060405180830381865afa1580156110e8573d6000803e3d6000fd5b505050506040513d601f19601f8201168201806040525081019061110c9190611c01565b90611741565b905090565b61111f61199b565b50600090815260036020818152604092839020835161016081018552815460ff808216151583526001600160a01b036101009283900481169584019590955260018401549683019690965260028301546060830152938201546080820152600482015460a082015260058201548516151560c0820152600682015460e082015260078201548482015260089091015493841615156101208201529190920490911661014082015290565b6000546001600160a01b031633146111f35760405162461bcd60e51b815260040161043990611bcc565b600081815260036020526040902054819060ff16151560011461121557600080fd5b60008181526003602052604090206008015460ff161561123457600080fd5b6000828152600360205260409020600581015460ff1615156001146112aa5760405162461bcd60e51b815260206004820152602660248201527f546f6b656e56657374696e673a2076657374696e67206973206e6f74207265766044820152656f6361626c6560d01b6064820152608401610439565b6040805161016081018252825460ff808216151583526001600160a01b0361010092839004811660208501526001860154948401949094526002850154606084015260038501546080840152600485015460a084015260058501548116151560c0840152600685015460e084015260078501548284015260088501549081161515610120840152049091166101408201526000906113479061165e565b90508015611359576113598482610c0f565b60006113768360070154846006015461174190919063ffffffff16565b6004549091506113869082611741565b6004555050600801805460ff191660011790555050565b600081815260036020526040812054829060ff1615156001146113bf57600080fd5b60008181526003602052604090206008015460ff16156113de57600080fd5b600083815260036020818152604092839020835161016081018552815460ff808216151583526001600160a01b036101009283900481169584019590955260018401549683019690965260028301546060830152938201546080820152600482015460a082015260058201548516151560c0820152600682015460e082015260078201548482015260088201549485161515610120820152929093041661014082015261148a9061165e565b949350505050565b6000546001600160a01b031633146114bc5760405162461bcd60e51b815260040161043990611bcc565b6001600160a01b0381166115215760405162461bcd60e51b815260206004820152602660248201527f4f776e61626c653a206e6577206f776e657220697320746865207a65726f206160448201526564647265737360d01b6064820152608401610439565b61152a8161174d565b50565b61153561199b565b611542610311848461102f565b9392505050565b6001600160a01b03811660009081526005602052604081205461156d90839061102f565b92915050565b600061157e60025490565b82106115d65760405162461bcd60e51b815260206004820152602160248201527f546f6b656e56657374696e673a20696e646578206f7574206f6620626f756e646044820152607360f81b6064820152608401610439565b600282815481106115e9576115e9611c7c565b90600052602060002001549050919050565b604080516001600160a01b038416602482015260448082018490528251808303909101815260649091019091526020810180516001600160e01b031663a9059cbb60e01b17905261164d90849061179d565b505050565b60006115428284611c4d565b6040810151600090429081108061167c575061012083015115156001145b1561168a5750600092915050565b6080830151606084015161169d91611652565b81106116b75761010083015160e084015161154291611741565b60006116d084606001518361174190919063ffffffff16565b60a085015190915060006116e4838361186f565b905060006116f2828461187b565b9050600061171b8860800151611715848b60e0015161187b90919063ffffffff16565b9061186f565b90506117358861010001518261174190919063ffffffff16565b98975050505050505050565b60006115428284611c65565b600080546001600160a01b038381166001600160a01b0319831681178455604051919092169283917f8be0079c531659141344cd1fd0a4f28419497f9722a3daafe3b4186f6b6457e09190a35050565b60006117f2826040518060400160405280602081526020017f5361666545524332303a206c6f772d6c6576656c2063616c6c206661696c6564815250856001600160a01b03166118879092919063ffffffff16565b80519091501561164d57808060200190518101906118109190611c1a565b61164d5760405162461bcd60e51b815260206004820152602a60248201527f5361666545524332303a204552433230206f7065726174696f6e20646964206e6044820152691bdd081cdd58d8d9595960b21b6064820152608401610439565b60006115428284611c92565b60006115428284611cb4565b606061148a8484600085856001600160a01b0385163b6118e95760405162461bcd60e51b815260206004820152601d60248201527f416464726573733a2063616c6c20746f206e6f6e2d636f6e74726163740000006044820152606401610439565b600080866001600160a01b031685876040516119059190611d03565b60006040518083038185875af1925050503d8060008114611942576040519150601f19603f3d011682016040523d82523d6000602084013e611947565b606091505b5091509150611957828286611962565b979650505050505050565b60608315611971575081611542565b8251156119815782518084602001fd5b8160405162461bcd60e51b81526004016104399190611d1f565b60405180610160016040528060001515815260200160006001600160a01b0316815260200160008152602001600081526020016000815260200160008152602001600015158152602001600081526020016000815260200160001515815260200160006001600160a01b031681525090565b600060208284031215611a1f57600080fd5b5035919050565b80356001600160a01b0381168114611a3d57600080fd5b919050565b801515811461152a57600080fd5b600080600080600080600080610100898b031215611a6d57600080fd5b611a7689611a26565b97506020890135965060408901359550606089013594506080890135935060a0890135611aa281611a42565b925060c08901359150611ab760e08a01611a26565b90509295985092959890939650565b600060208284031215611ad857600080fd5b61154282611a26565b60008060408385031215611af457600080fd5b50508035926020909101359150565b81511515815261016081016020830151611b2860208401826001600160a01b03169052565b5060408301516040830152606083015160608301526080830151608083015260a083015160a083015260c0830151611b6460c084018215159052565b5060e08381015190830152610100808401519083015261012080840151151590830152610140928301516001600160a01b0316929091019190915290565b60008060408385031215611bb557600080fd5b611bbe83611a26565b946020939093013593505050565b6020808252818101527f4f776e61626c653a2063616c6c6572206973206e6f7420746865206f776e6572604082015260600190565b600060208284031215611c1357600080fd5b5051919050565b600060208284031215611c2c57600080fd5b815161154281611a42565b634e487b7160e01b600052601160045260246000fd5b60008219821115611c6057611c60611c37565b500190565b600082821015611c7757611c77611c37565b500390565b634e487b7160e01b600052603260045260246000fd5b600082611caf57634e487b7160e01b600052601260045260246000fd5b500490565b6000816000190483118215151615611cce57611cce611c37565b500290565b60005b83811015611cee578181015183820152602001611cd6565b83811115611cfd576000848401525b50505050565b60008251611d15818460208701611cd3565b9190910192915050565b6020815260008251806020840152611d3e816040850160208701611cd3565b601f01601f1916919091016040019291505056fea264697066735822122011afd59c6043bd480909090a8b8fef3b4bb8afac7e259ff5b6513a510d9a546964736f6c634300080d0033",
    "sourcePath": "c:/Users/mateo/Desktop/DappsFactory/tokenVesting_2/contracts/TokenVestingModificado.sol",
    "compiler": {
        "name": "solc",
        "version": "0.8.13+commit.abaa5c0e"
    },
    "functionHashes": {
        "DEFAULT_ADMIN_ROLE()": "a217fddf",
        "addTotalAmount(uint256,bytes32)": "6b8e9585",
        "computeNextVestingScheduleIdForHolder(address)": "f7c469f0",
        "computeReleasableAmount(bytes32)": "ea1bb3d5",
        "computeVestingScheduleIdForAddressAndIndex(address,uint256)": "8af104da",
        "createVestingSchedule(address,uint256,uint256,uint256,uint256,bool,uint256,address)": "4f05419d",
        "getLastVestingScheduleForHolder(address)": "7e913dc6",
        "getToken()": "21df0da7",
        "getVestingIdAtIndex(uint256)": "f9079b37",
        "getVestingSchedule(bytes32)": "9ef346b4",
        "getVestingScheduleByAddressAndIndex(address,uint256)": "f51321d7",
        "getVestingSchedulesCount()": "13083617",
        "getVestingSchedulesCountByBeneficiary(address)": "5a7bb69a",
        "getVestingSchedulesTotalAmount()": "48deb471",
        "getWithdrawableAmount()": "90be10cc",
        "owner()": "8da5cb5b",
        "release(bytes32,uint256)": "66afd8ef",
        "renounceOwnership()": "715018a6",
        "revoke(bytes32)": "b75c7dc6",
        "transferOwnership(address)": "f2fde38b",
        "withdraw(uint256)": "2e1a7d4d"
    },
    "gasEstimates": {
        "creation": {
            "codeDepositCost": "1512000",
            "executionCost": "infinite",
            "totalCost": "infinite"
        },
        "external": {
            "": "207",
            "DEFAULT_ADMIN_ROLE()": "295",
            "addTotalAmount(uint256,bytes32)": "24693",
            "computeNextVestingScheduleIdForHolder(address)": "2877",
            "computeReleasableAmount(bytes32)": "infinite",
            "computeVestingScheduleIdForAddressAndIndex(address,uint256)": "578",
            "createVestingSchedule(address,uint256,uint256,uint256,uint256,bool,uint256,address)": "infinite",
            "getLastVestingScheduleForHolder(address)": "23048",
            "getToken()": "infinite",
            "getVestingIdAtIndex(uint256)": "6836",
            "getVestingSchedule(bytes32)": "20451",
            "getVestingScheduleByAddressAndIndex(address,uint256)": "infinite",
            "getVestingSchedulesCount()": "2294",
            "getVestingSchedulesCountByBeneficiary(address)": "2549",
            "getVestingSchedulesTotalAmount()": "2371",
            "getWithdrawableAmount()": "infinite",
            "owner()": "2376",
            "release(bytes32,uint256)": "infinite",
            "renounceOwnership()": "28203",
            "revoke(bytes32)": "infinite",
            "transferOwnership(address)": "28375",
            "withdraw(uint256)": "infinite"
        },
        "internal": {
            "_computeReleasableAmount(struct TokenVestingModificado.VestingSchedule memory)": "infinite",
            "getCurrentTime()": "infinite"
        }
    }
}