{
    "contractName": "TokenVestingModificado",
    "abi": [
        {
            "inputs": [
                {
                    "internalType": "address",
                    "name": "token_",
                    "type": "address"
                },
                {
                    "internalType": "address",
                    "name": "roles_",
                    "type": "address"
                }
            ],
            "stateMutability": "nonpayable",
            "type": "constructor"
        },
        {
            "anonymous": false,
            "inputs": [
                {
                    "indexed": true,
                    "internalType": "address",
                    "name": "previousOwner",
                    "type": "address"
                },
                {
                    "indexed": true,
                    "internalType": "address",
                    "name": "newOwner",
                    "type": "address"
                }
            ],
            "name": "OwnershipTransferred",
            "type": "event"
        },
        {
            "anonymous": false,
            "inputs": [
                {
                    "indexed": false,
                    "internalType": "uint256",
                    "name": "amount",
                    "type": "uint256"
                }
            ],
            "name": "Released",
            "type": "event"
        },
        {
            "anonymous": false,
            "inputs": [],
            "name": "Revoked",
            "type": "event"
        },
        {
            "stateMutability": "payable",
            "type": "fallback"
        },
        {
            "inputs": [
                {
                    "internalType": "address",
                    "name": "holder",
                    "type": "address"
                }
            ],
            "name": "computeNextVestingScheduleIdForHolder",
            "outputs": [
                {
                    "internalType": "bytes32",
                    "name": "",
                    "type": "bytes32"
                }
            ],
            "stateMutability": "view",
            "type": "function"
        },
        {
            "inputs": [
                {
                    "internalType": "bytes32",
                    "name": "vestingScheduleId",
                    "type": "bytes32"
                }
            ],
            "name": "computeReleasableAmount",
            "outputs": [
                {
                    "internalType": "uint256",
                    "name": "",
                    "type": "uint256"
                }
            ],
            "stateMutability": "view",
            "type": "function"
        },
        {
            "inputs": [
                {
                    "internalType": "address",
                    "name": "holder",
                    "type": "address"
                },
                {
                    "internalType": "uint256",
                    "name": "index",
                    "type": "uint256"
                }
            ],
            "name": "computeVestingScheduleIdForAddressAndIndex",
            "outputs": [
                {
                    "internalType": "bytes32",
                    "name": "",
                    "type": "bytes32"
                }
            ],
            "stateMutability": "pure",
            "type": "function"
        },
        {
            "inputs": [
                {
                    "internalType": "address",
                    "name": "_beneficiary",
                    "type": "address"
                },
                {
                    "internalType": "uint256",
                    "name": "_start",
                    "type": "uint256"
                },
                {
                    "internalType": "uint256",
                    "name": "_cliff",
                    "type": "uint256"
                },
                {
                    "internalType": "uint256",
                    "name": "_duration",
                    "type": "uint256"
                },
                {
                    "internalType": "uint256",
                    "name": "_slicePeriodSeconds",
                    "type": "uint256"
                },
                {
                    "internalType": "bool",
                    "name": "_revocable",
                    "type": "bool"
                },
                {
                    "internalType": "uint256",
                    "name": "_amount",
                    "type": "uint256"
                }
            ],
            "name": "createVestingSchedule",
            "outputs": [],
            "stateMutability": "nonpayable",
            "type": "function"
        },
        {
            "inputs": [
                {
                    "internalType": "address",
                    "name": "holder",
                    "type": "address"
                }
            ],
            "name": "getLastVestingScheduleForHolder",
            "outputs": [
                {
                    "components": [
                        {
                            "internalType": "bool",
                            "name": "initialized",
                            "type": "bool"
                        },
                        {
                            "internalType": "address",
                            "name": "beneficiary",
                            "type": "address"
                        },
                        {
                            "internalType": "uint256",
                            "name": "cliff",
                            "type": "uint256"
                        },
                        {
                            "internalType": "uint256",
                            "name": "start",
                            "type": "uint256"
                        },
                        {
                            "internalType": "uint256",
                            "name": "duration",
                            "type": "uint256"
                        },
                        {
                            "internalType": "uint256",
                            "name": "slicePeriodSeconds",
                            "type": "uint256"
                        },
                        {
                            "internalType": "bool",
                            "name": "revocable",
                            "type": "bool"
                        },
                        {
                            "internalType": "uint256",
                            "name": "amountTotal",
                            "type": "uint256"
                        },
                        {
                            "internalType": "uint256",
                            "name": "released",
                            "type": "uint256"
                        },
                        {
                            "internalType": "bool",
                            "name": "revoked",
                            "type": "bool"
                        }
                    ],
                    "internalType": "struct TokenVestingModificado.VestingSchedule",
                    "name": "",
                    "type": "tuple"
                }
            ],
            "stateMutability": "view",
            "type": "function"
        },
        {
            "inputs": [],
            "name": "getToken",
            "outputs": [
                {
                    "internalType": "address",
                    "name": "",
                    "type": "address"
                }
            ],
            "stateMutability": "view",
            "type": "function"
        },
        {
            "inputs": [
                {
                    "internalType": "uint256",
                    "name": "index",
                    "type": "uint256"
                }
            ],
            "name": "getVestingIdAtIndex",
            "outputs": [
                {
                    "internalType": "bytes32",
                    "name": "",
                    "type": "bytes32"
                }
            ],
            "stateMutability": "view",
            "type": "function"
        },
        {
            "inputs": [
                {
                    "internalType": "bytes32",
                    "name": "vestingScheduleId",
                    "type": "bytes32"
                }
            ],
            "name": "getVestingSchedule",
            "outputs": [
                {
                    "components": [
                        {
                            "internalType": "bool",
                            "name": "initialized",
                            "type": "bool"
                        },
                        {
                            "internalType": "address",
                            "name": "beneficiary",
                            "type": "address"
                        },
                        {
                            "internalType": "uint256",
                            "name": "cliff",
                            "type": "uint256"
                        },
                        {
                            "internalType": "uint256",
                            "name": "start",
                            "type": "uint256"
                        },
                        {
                            "internalType": "uint256",
                            "name": "duration",
                            "type": "uint256"
                        },
                        {
                            "internalType": "uint256",
                            "name": "slicePeriodSeconds",
                            "type": "uint256"
                        },
                        {
                            "internalType": "bool",
                            "name": "revocable",
                            "type": "bool"
                        },
                        {
                            "internalType": "uint256",
                            "name": "amountTotal",
                            "type": "uint256"
                        },
                        {
                            "internalType": "uint256",
                            "name": "released",
                            "type": "uint256"
                        },
                        {
                            "internalType": "bool",
                            "name": "revoked",
                            "type": "bool"
                        }
                    ],
                    "internalType": "struct TokenVestingModificado.VestingSchedule",
                    "name": "",
                    "type": "tuple"
                }
            ],
            "stateMutability": "view",
            "type": "function"
        },
        {
            "inputs": [
                {
                    "internalType": "address",
                    "name": "holder",
                    "type": "address"
                },
                {
                    "internalType": "uint256",
                    "name": "index",
                    "type": "uint256"
                }
            ],
            "name": "getVestingScheduleByAddressAndIndex",
            "outputs": [
                {
                    "components": [
                        {
                            "internalType": "bool",
                            "name": "initialized",
                            "type": "bool"
                        },
                        {
                            "internalType": "address",
                            "name": "beneficiary",
                            "type": "address"
                        },
                        {
                            "internalType": "uint256",
                            "name": "cliff",
                            "type": "uint256"
                        },
                        {
                            "internalType": "uint256",
                            "name": "start",
                            "type": "uint256"
                        },
                        {
                            "internalType": "uint256",
                            "name": "duration",
                            "type": "uint256"
                        },
                        {
                            "internalType": "uint256",
                            "name": "slicePeriodSeconds",
                            "type": "uint256"
                        },
                        {
                            "internalType": "bool",
                            "name": "revocable",
                            "type": "bool"
                        },
                        {
                            "internalType": "uint256",
                            "name": "amountTotal",
                            "type": "uint256"
                        },
                        {
                            "internalType": "uint256",
                            "name": "released",
                            "type": "uint256"
                        },
                        {
                            "internalType": "bool",
                            "name": "revoked",
                            "type": "bool"
                        }
                    ],
                    "internalType": "struct TokenVestingModificado.VestingSchedule",
                    "name": "",
                    "type": "tuple"
                }
            ],
            "stateMutability": "view",
            "type": "function"
        },
        {
            "inputs": [],
            "name": "getVestingSchedulesCount",
            "outputs": [
                {
                    "internalType": "uint256",
                    "name": "",
                    "type": "uint256"
                }
            ],
            "stateMutability": "view",
            "type": "function"
        },
        {
            "inputs": [
                {
                    "internalType": "address",
                    "name": "_beneficiary",
                    "type": "address"
                }
            ],
            "name": "getVestingSchedulesCountByBeneficiary",
            "outputs": [
                {
                    "internalType": "uint256",
                    "name": "",
                    "type": "uint256"
                }
            ],
            "stateMutability": "view",
            "type": "function"
        },
        {
            "inputs": [],
            "name": "getVestingSchedulesTotalAmount",
            "outputs": [
                {
                    "internalType": "uint256",
                    "name": "",
                    "type": "uint256"
                }
            ],
            "stateMutability": "view",
            "type": "function"
        },
        {
            "inputs": [],
            "name": "getWithdrawableAmount",
            "outputs": [
                {
                    "internalType": "uint256",
                    "name": "",
                    "type": "uint256"
                }
            ],
            "stateMutability": "view",
            "type": "function"
        },
        {
            "inputs": [],
            "name": "owner",
            "outputs": [
                {
                    "internalType": "address",
                    "name": "",
                    "type": "address"
                }
            ],
            "stateMutability": "view",
            "type": "function"
        },
        {
            "inputs": [
                {
                    "internalType": "bytes32",
                    "name": "vestingScheduleId",
                    "type": "bytes32"
                },
                {
                    "internalType": "uint256",
                    "name": "amount",
                    "type": "uint256"
                }
            ],
            "name": "release",
            "outputs": [],
            "stateMutability": "nonpayable",
            "type": "function"
        },
        {
            "inputs": [],
            "name": "renounceOwnership",
            "outputs": [],
            "stateMutability": "nonpayable",
            "type": "function"
        },
        {
            "inputs": [
                {
                    "internalType": "bytes32",
                    "name": "vestingScheduleId",
                    "type": "bytes32"
                }
            ],
            "name": "revoke",
            "outputs": [],
            "stateMutability": "nonpayable",
            "type": "function"
        },
        {
            "inputs": [
                {
                    "internalType": "address",
                    "name": "newOwner",
                    "type": "address"
                }
            ],
            "name": "transferOwnership",
            "outputs": [],
            "stateMutability": "nonpayable",
            "type": "function"
        },
        {
            "inputs": [
                {
                    "internalType": "uint256",
                    "name": "amount",
                    "type": "uint256"
                }
            ],
            "name": "withdraw",
            "outputs": [],
            "stateMutability": "nonpayable",
            "type": "function"
        },
        {
            "stateMutability": "payable",
            "type": "receive"
        }
    ],
    "bytecode": "60c06040523480156200001157600080fd5b5060405162001d0e38038062001d0e8339810160408190526200003491620000dc565b6200003f336200006f565b600180556001600160a01b0382166200005757600080fd5b6001600160a01b039182166080521660a05262000114565b600080546001600160a01b038381166001600160a01b0319831681178455604051919092169283917f8be0079c531659141344cd1fd0a4f28419497f9722a3daafe3b4186f6b6457e09190a35050565b80516001600160a01b0381168114620000d757600080fd5b919050565b60008060408385031215620000f057600080fd5b620000fb83620000bf565b91506200010b60208401620000bf565b90509250929050565b60805160a051611bbf6200014f60003960006103d201526000818161016801528181610aaf01528181610d770152610f2c0152611bbf6000f3fe60806040526004361061010c5760003560e01c80638af104da1161009a578063ea1bb3d511610061578063ea1bb3d514610300578063f2fde38b14610320578063f51321d714610340578063f7c469f014610360578063f9079b371461038057005b80638af104da1461026d5780638da5cb5b1461028d57806390be10cc146102ab5780639ef346b4146102c0578063b75c7dc6146102e057005b806348deb471116100de57806348deb471146101c05780635a7bb69a146101d557806366afd8ef1461020b578063715018a61461022b5780637e913dc61461024057005b8063130836171461011557806317e289e91461013957806321df0da7146101595780632e1a7d4d146101a057005b3661011357005b005b34801561012157600080fd5b506002545b6040519081526020015b60405180910390f35b34801561014557600080fd5b50610113610154366004611891565b6103a0565b34801561016557600080fd5b507f00000000000000000000000000000000000000000000000000000000000000005b6040516001600160a01b039091168152602001610130565b3480156101ac57600080fd5b506101136101bb3660046118f8565b61094a565b3480156101cc57600080fd5b50600454610126565b3480156101e157600080fd5b506101266101f0366004611911565b6001600160a01b031660009081526005602052604090205490565b34801561021757600080fd5b5061011361022636600461192c565b610add565b34801561023757600080fd5b50610113610dac565b34801561024c57600080fd5b5061026061025b366004611911565b610de2565b604051610130919061194e565b34801561027957600080fd5b506101266102883660046119d9565b610eba565b34801561029957600080fd5b506000546001600160a01b0316610188565b3480156102b757600080fd5b50610126610f01565b3480156102cc57600080fd5b506102606102db3660046118f8565b610fa2565b3480156102ec57600080fd5b506101136102fb3660046118f8565b611049565b34801561030c57600080fd5b5061012661031b3660046118f8565b611212565b34801561032c57600080fd5b5061011361033b366004611911565b6112fc565b34801561034c57600080fd5b5061026061035b3660046119d9565b611397565b34801561036c57600080fd5b5061012661037b366004611911565b6113b3565b34801561038c57600080fd5b5061012661039b3660046118f8565b6113dd565b60405163b7906ffd60e01b815260206004820152600c60248201526b1250d3d7d0d3d395149050d560a21b60448201527f00000000000000000000000000000000000000000000000000000000000000006001600160a01b0316906391d1485490829063b7906ffd90606401602060405180830381865afa158015610429573d6000803e3d6000fd5b505050506040513d601f19601f8201168201806040525081019061044d9190611a03565b6040516001600160e01b031960e084901b1681526004810191909152336024820152604401602060405180830381865afa15801561048f573d6000803e3d6000fd5b505050506040513d601f19601f820116820180604052508101906104b39190611a1c565b6105045760405162461bcd60e51b815260206004820152601e60248201527f43616c6c6572206973206e6f742076657374696e6720636f6e7472616374000060448201526064015b60405180910390fd5b80306001600160a01b03166390be10cc6040518163ffffffff1660e01b8152600401602060405180830381865afa158015610543573d6000803e3d6000fd5b505050506040513d601f19601f820116820180604052508101906105679190611a03565b10156105ee5760405162461bcd60e51b815260206004820152604a60248201527f546f6b656e56657374696e673a2063616e6e6f7420637265617465207665737460448201527f696e67207363686564756c652062656361757365206e6f742073756666696369606482015269656e7420746f6b656e7360b01b608482015260a4016104fb565b600084116106495760405162461bcd60e51b815260206004820152602260248201527f546f6b656e56657374696e673a206475726174696f6e206d757374206265203e604482015261020360f41b60648201526084016104fb565b600081116106995760405162461bcd60e51b815260206004820181905260248201527f546f6b656e56657374696e673a20616d6f756e74206d757374206265203e203060448201526064016104fb565b60018310156107005760405162461bcd60e51b815260206004820152602d60248201527f546f6b656e56657374696e673a20736c696365506572696f645365636f6e647360448201526c206d757374206265203e3d203160981b60648201526084016104fb565b604051630f7c469f60e41b81526001600160a01b0388166004820152600090309063f7c469f090602401602060405180830381865afa158015610747573d6000803e3d6000fd5b505050506040513d601f19601f8201168201806040525081019061076b9190611a03565b905060006107798888611465565b90506040518061014001604052806001151581526020018a6001600160a01b03168152602001828152602001898152602001878152602001868152602001851515815260200184815260200160008152602001600015158152506003600084815260200190815260200160002060008201518160000160006101000a81548160ff02191690831515021790555060208201518160000160016101000a8154816001600160a01b0302191690836001600160a01b0316021790555060408201518160010155606082015181600201556080820151816003015560a0820151816004015560c08201518160050160006101000a81548160ff02191690831515021790555060e0820151816006015561010082015181600701556101208201518160080160006101000a81548160ff0219169083151502179055509050506108c98360045461146590919063ffffffff16565b6004556002805460018181019092557f405787fa12a823e0f2b7631cc41b3ba8828b3321ca811111fa75cd3aa3bb5ace018390556001600160a01b038a1660009081526005602052604090205490610922908290611465565b6001600160a01b03909a16600090815260056020526040902099909955505050505050505050565b60026001540361099c5760405162461bcd60e51b815260206004820152601f60248201527f5265656e7472616e637947756172643a207265656e7472616e742063616c6c0060448201526064016104fb565b60026001556000546001600160a01b031633146109cb5760405162461bcd60e51b81526004016104fb90611a39565b80306001600160a01b03166390be10cc6040518163ffffffff1660e01b8152600401602060405180830381865afa158015610a0a573d6000803e3d6000fd5b505050506040513d601f19601f82011682018060405250810190610a2e9190611a03565b1015610a905760405162461bcd60e51b815260206004820152602b60248201527f546f6b656e56657374696e673a206e6f7420656e6f756768207769746864726160448201526a7761626c652066756e647360a81b60648201526084016104fb565b610ad6610aa56000546001600160a01b031690565b6001600160a01b037f0000000000000000000000000000000000000000000000000000000000000000169083611471565b5060018055565b600260015403610b2f5760405162461bcd60e51b815260206004820152601f60248201527f5265656e7472616e637947756172643a207265656e7472616e742063616c6c0060448201526064016104fb565b60026001908155600083815260036020526040902054839160ff909116151514610b5857600080fd5b60008181526003602052604090206008015460ff1615610b7757600080fd5b6000838152600360205260408120805491549091336001600160a01b03610100909204821681149291909116148180610bad5750805b610c2a5760405162461bcd60e51b815260206004820152604260248201527f546f6b656e56657374696e673a206f6e6c792062656e6566696369617279206160448201527f6e64206f776e65722063616e2072656c656173652076657374656420746f6b656064820152616e7360f01b608482015260a4016104fb565b6040805161014081018252845460ff808216151583526001600160a01b03610100928390041660208401526001870154938301939093526002860154606083015260038601546080830152600486015460a083015260058601548316151560c0830152600686015460e083015260078601549082015260088501549091161515610120820152600090610cbc906114c8565b905085811015610d345760405162461bcd60e51b815260206004820152603d60248201527f546f6b656e56657374696e673a2063616e6e6f742072656c6561736520746f6b60448201527f656e732c206e6f7420656e6f7567682076657374656420746f6b656e7300000060648201526084016104fb565b6007840154610d439087611465565b600785015583546004546101009091046001600160a01b031690610d6790886115ab565b600455610d9e6001600160a01b037f0000000000000000000000000000000000000000000000000000000000000000168289611471565b505060018055505050505050565b6000546001600160a01b03163314610dd65760405162461bcd60e51b81526004016104fb90611a39565b610de060006115b7565b565b610dea611805565b6001600160a01b03821660009081526005602052604081205460039190610e1990859061028890600190611a84565b81526020808201929092526040908101600020815161014081018352815460ff808216151583526001600160a01b036101009283900416958301959095526001830154938201939093526002820154606082015260038201546080820152600482015460a082015260058201548416151560c0820152600682015460e082015260078201549281019290925260080154909116151561012082015292915050565b6040516bffffffffffffffffffffffff19606084901b1660208201526034810182905260009060540160405160208183030381529060405280519060200120905092915050565b600480546040516370a0823160e01b81523092810192909252600091610f9d91906001600160a01b037f000000000000000000000000000000000000000000000000000000000000000016906370a0823190602401602060405180830381865afa158015610f73573d6000803e3d6000fd5b505050506040513d601f19601f82011682018060405250810190610f979190611a03565b906115ab565b905090565b610faa611805565b50600090815260036020818152604092839020835161014081018552815460ff808216151583526001600160a01b0361010092839004169483019490945260018301549582019590955260028201546060820152928101546080840152600481015460a084015260058101548216151560c0840152600681015460e0840152600781015493830193909352600890920154909116151561012082015290565b6000546001600160a01b031633146110735760405162461bcd60e51b81526004016104fb90611a39565b600081815260036020526040902054819060ff16151560011461109557600080fd5b60008181526003602052604090206008015460ff16156110b457600080fd5b6000828152600360205260409020600581015460ff16151560011461112a5760405162461bcd60e51b815260206004820152602660248201527f546f6b656e56657374696e673a2076657374696e67206973206e6f74207265766044820152656f6361626c6560d01b60648201526084016104fb565b6040805161014081018252825460ff808216151583526001600160a01b03610100928390041660208401526001850154938301939093526002840154606083015260038401546080830152600484015460a083015260058401548316151560c0830152600684015460e0830152600784015490820152600883015490911615156101208201526000906111bc906114c8565b905080156111ce576111ce8482610add565b60006111eb836007015484600601546115ab90919063ffffffff16565b6004549091506111fb90826115ab565b6004555050600801805460ff191660011790555050565b600081815260036020526040812054829060ff16151560011461123457600080fd5b60008181526003602052604090206008015460ff161561125357600080fd5b600083815260036020818152604092839020835161014081018552815460ff808216151583526001600160a01b0361010092839004169483019490945260018301549582019590955260028201546060820152928101546080840152600481015460a084015260058101548216151560c0840152600681015460e084015260078101549383019390935260088301541615156101208201526112f4906114c8565b949350505050565b6000546001600160a01b031633146113265760405162461bcd60e51b81526004016104fb90611a39565b6001600160a01b03811661138b5760405162461bcd60e51b815260206004820152602660248201527f4f776e61626c653a206e6577206f776e657220697320746865207a65726f206160448201526564647265737360d01b60648201526084016104fb565b611394816115b7565b50565b61139f611805565b6113ac6102db8484610eba565b9392505050565b6001600160a01b0381166000908152600560205260408120546113d7908390610eba565b92915050565b60006113e860025490565b82106114405760405162461bcd60e51b815260206004820152602160248201527f546f6b656e56657374696e673a20696e646578206f7574206f6620626f756e646044820152607360f81b60648201526084016104fb565b6002828154811061145357611453611a9b565b90600052602060002001549050919050565b60006113ac8284611ab1565b604080516001600160a01b038416602482015260448082018490528251808303909101815260649091019091526020810180516001600160e01b031663a9059cbb60e01b1790526114c3908490611607565b505050565b604081015160009042908110806114e6575061012083015115156001145b156114f45750600092915050565b6080830151606084015161150791611465565b81106115215761010083015160e08401516113ac916115ab565b600061153a8460600151836115ab90919063ffffffff16565b60a0850151909150600061154e83836116d9565b9050600061155c82846116e5565b90506000611585886080015161157f848b60e001516116e590919063ffffffff16565b906116d9565b905061159f886101000151826115ab90919063ffffffff16565b98975050505050505050565b60006113ac8284611a84565b600080546001600160a01b038381166001600160a01b0319831681178455604051919092169283917f8be0079c531659141344cd1fd0a4f28419497f9722a3daafe3b4186f6b6457e09190a35050565b600061165c826040518060400160405280602081526020017f5361666545524332303a206c6f772d6c6576656c2063616c6c206661696c6564815250856001600160a01b03166116f19092919063ffffffff16565b8051909150156114c3578080602001905181019061167a9190611a1c565b6114c35760405162461bcd60e51b815260206004820152602a60248201527f5361666545524332303a204552433230206f7065726174696f6e20646964206e6044820152691bdd081cdd58d8d9595960b21b60648201526084016104fb565b60006113ac8284611ac9565b60006113ac8284611aeb565b60606112f48484600085856001600160a01b0385163b6117535760405162461bcd60e51b815260206004820152601d60248201527f416464726573733a2063616c6c20746f206e6f6e2d636f6e747261637400000060448201526064016104fb565b600080866001600160a01b0316858760405161176f9190611b3a565b60006040518083038185875af1925050503d80600081146117ac576040519150601f19603f3d011682016040523d82523d6000602084013e6117b1565b606091505b50915091506117c18282866117cc565b979650505050505050565b606083156117db5750816113ac565b8251156117eb5782518084602001fd5b8160405162461bcd60e51b81526004016104fb9190611b56565b60405180610140016040528060001515815260200160006001600160a01b031681526020016000815260200160008152602001600081526020016000815260200160001515815260200160008152602001600081526020016000151581525090565b80356001600160a01b038116811461187e57600080fd5b919050565b801515811461139457600080fd5b600080600080600080600060e0888a0312156118ac57600080fd5b6118b588611867565b96506020880135955060408801359450606088013593506080880135925060a08801356118e181611883565b8092505060c0880135905092959891949750929550565b60006020828403121561190a57600080fd5b5035919050565b60006020828403121561192357600080fd5b6113ac82611867565b6000806040838503121561193f57600080fd5b50508035926020909101359150565b8151151581526101408101602083015161197360208401826001600160a01b03169052565b5060408301516040830152606083015160608301526080830151608083015260a083015160a083015260c08301516119af60c084018215159052565b5060e083810151908301526101008084015190830152610120928301511515929091019190915290565b600080604083850312156119ec57600080fd5b6119f583611867565b946020939093013593505050565b600060208284031215611a1557600080fd5b5051919050565b600060208284031215611a2e57600080fd5b81516113ac81611883565b6020808252818101527f4f776e61626c653a2063616c6c6572206973206e6f7420746865206f776e6572604082015260600190565b634e487b7160e01b600052601160045260246000fd5b600082821015611a9657611a96611a6e565b500390565b634e487b7160e01b600052603260045260246000fd5b60008219821115611ac457611ac4611a6e565b500190565b600082611ae657634e487b7160e01b600052601260045260246000fd5b500490565b6000816000190483118215151615611b0557611b05611a6e565b500290565b60005b83811015611b25578181015183820152602001611b0d565b83811115611b34576000848401525b50505050565b60008251611b4c818460208701611b0a565b9190910192915050565b6020815260008251806020840152611b75816040850160208701611b0a565b601f01601f1916919091016040019291505056fea2646970667358221220e250b16624d581c388ca14cebb1286c416473bdf400c7cdb92ce7fdf4c12c72664736f6c634300080d0033",
    "sourcePath": "c:/Users/mateo/Desktop/DappsFactory/tokenVesting_2/contracts/TokenVestingModificado.sol",
    "compiler": {
        "name": "solc",
        "version": "0.8.13+commit.abaa5c0e"
    },
    "functionHashes": {
        "computeNextVestingScheduleIdForHolder(address)": "f7c469f0",
        "computeReleasableAmount(bytes32)": "ea1bb3d5",
        "computeVestingScheduleIdForAddressAndIndex(address,uint256)": "8af104da",
        "createVestingSchedule(address,uint256,uint256,uint256,uint256,bool,uint256)": "17e289e9",
        "getLastVestingScheduleForHolder(address)": "7e913dc6",
        "getToken()": "21df0da7",
        "getVestingIdAtIndex(uint256)": "f9079b37",
        "getVestingSchedule(bytes32)": "9ef346b4",
        "getVestingScheduleByAddressAndIndex(address,uint256)": "f51321d7",
        "getVestingSchedulesCount()": "13083617",
        "getVestingSchedulesCountByBeneficiary(address)": "5a7bb69a",
        "getVestingSchedulesTotalAmount()": "48deb471",
        "getWithdrawableAmount()": "90be10cc",
        "owner()": "8da5cb5b",
        "release(bytes32,uint256)": "66afd8ef",
        "renounceOwnership()": "715018a6",
        "revoke(bytes32)": "b75c7dc6",
        "transferOwnership(address)": "f2fde38b",
        "withdraw(uint256)": "2e1a7d4d"
    },
    "gasEstimates": {
        "creation": {
            "codeDepositCost": "1420600",
            "executionCost": "infinite",
            "totalCost": "infinite"
        },
        "external": {
            "": "185",
            "computeNextVestingScheduleIdForHolder(address)": "2855",
            "computeReleasableAmount(bytes32)": "infinite",
            "computeVestingScheduleIdForAddressAndIndex(address,uint256)": "578",
            "createVestingSchedule(address,uint256,uint256,uint256,uint256,bool,uint256)": "infinite",
            "getLastVestingScheduleForHolder(address)": "22931",
            "getToken()": "infinite",
            "getVestingIdAtIndex(uint256)": "6814",
            "getVestingSchedule(bytes32)": "20335",
            "getVestingScheduleByAddressAndIndex(address,uint256)": "infinite",
            "getVestingSchedulesCount()": "2294",
            "getVestingSchedulesCountByBeneficiary(address)": "2571",
            "getVestingSchedulesTotalAmount()": "2304",
            "getWithdrawableAmount()": "infinite",
            "owner()": "2376",
            "release(bytes32,uint256)": "infinite",
            "renounceOwnership()": "28203",
            "revoke(bytes32)": "infinite",
            "transferOwnership(address)": "28353",
            "withdraw(uint256)": "infinite"
        },
        "internal": {
            "_computeReleasableAmount(struct TokenVestingModificado.VestingSchedule memory)": "infinite",
            "getCurrentTime()": "infinite"
        }
    }
}